{
  "contractName": "AttendanceSBT",
  "abi": [
    {
      "inputs": [
        {
          "internalType": "address",
          "name": "_admin",
          "type": "address"
        }
      ],
      "stateMutability": "nonpayable",
      "type": "constructor"
    },
    {
      "anonymous": false,
      "inputs": [
        {
          "indexed": true,
          "internalType": "address",
          "name": "owner",
          "type": "address"
        },
        {
          "indexed": true,
          "internalType": "address",
          "name": "approved",
          "type": "address"
        },
        {
          "indexed": true,
          "internalType": "uint256",
          "name": "tokenId",
          "type": "uint256"
        }
      ],
      "name": "Approval",
      "type": "event"
    },
    {
      "anonymous": false,
      "inputs": [
        {
          "indexed": true,
          "internalType": "address",
          "name": "owner",
          "type": "address"
        },
        {
          "indexed": true,
          "internalType": "address",
          "name": "operator",
          "type": "address"
        },
        {
          "indexed": false,
          "internalType": "bool",
          "name": "approved",
          "type": "bool"
        }
      ],
      "name": "ApprovalForAll",
      "type": "event"
    },
    {
      "anonymous": false,
      "inputs": [
        {
          "indexed": true,
          "internalType": "address",
          "name": "from",
          "type": "address"
        },
        {
          "indexed": true,
          "internalType": "address",
          "name": "to",
          "type": "address"
        },
        {
          "indexed": true,
          "internalType": "uint256",
          "name": "tokenId",
          "type": "uint256"
        }
      ],
      "name": "Transfer",
      "type": "event"
    },
    {
      "inputs": [],
      "name": "admin",
      "outputs": [
        {
          "internalType": "address",
          "name": "",
          "type": "address"
        }
      ],
      "stateMutability": "view",
      "type": "function"
    },
    {
      "inputs": [
        {
          "internalType": "address",
          "name": "to",
          "type": "address"
        },
        {
          "internalType": "uint256",
          "name": "tokenId",
          "type": "uint256"
        }
      ],
      "name": "approve",
      "outputs": [],
      "stateMutability": "nonpayable",
      "type": "function"
    },
    {
      "inputs": [
        {
          "internalType": "address",
          "name": "owner",
          "type": "address"
        }
      ],
      "name": "balanceOf",
      "outputs": [
        {
          "internalType": "uint256",
          "name": "",
          "type": "uint256"
        }
      ],
      "stateMutability": "view",
      "type": "function"
    },
    {
      "inputs": [
        {
          "internalType": "uint256",
          "name": "tokenId",
          "type": "uint256"
        }
      ],
      "name": "getApproved",
      "outputs": [
        {
          "internalType": "address",
          "name": "",
          "type": "address"
        }
      ],
      "stateMutability": "view",
      "type": "function"
    },
    {
      "inputs": [
        {
          "internalType": "address",
          "name": "owner",
          "type": "address"
        },
        {
          "internalType": "address",
          "name": "operator",
          "type": "address"
        }
      ],
      "name": "isApprovedForAll",
      "outputs": [
        {
          "internalType": "bool",
          "name": "",
          "type": "bool"
        }
      ],
      "stateMutability": "view",
      "type": "function"
    },
    {
      "inputs": [],
      "name": "name",
      "outputs": [
        {
          "internalType": "string",
          "name": "",
          "type": "string"
        }
      ],
      "stateMutability": "view",
      "type": "function"
    },
    {
      "inputs": [
        {
          "internalType": "uint256",
          "name": "tokenId",
          "type": "uint256"
        }
      ],
      "name": "ownerOf",
      "outputs": [
        {
          "internalType": "address",
          "name": "",
          "type": "address"
        }
      ],
      "stateMutability": "view",
      "type": "function"
    },
    {
      "inputs": [
        {
          "internalType": "address",
          "name": "from",
          "type": "address"
        },
        {
          "internalType": "address",
          "name": "to",
          "type": "address"
        },
        {
          "internalType": "uint256",
          "name": "tokenId",
          "type": "uint256"
        }
      ],
      "name": "safeTransferFrom",
      "outputs": [],
      "stateMutability": "nonpayable",
      "type": "function"
    },
    {
      "inputs": [
        {
          "internalType": "address",
          "name": "from",
          "type": "address"
        },
        {
          "internalType": "address",
          "name": "to",
          "type": "address"
        },
        {
          "internalType": "uint256",
          "name": "tokenId",
          "type": "uint256"
        },
        {
          "internalType": "bytes",
          "name": "data",
          "type": "bytes"
        }
      ],
      "name": "safeTransferFrom",
      "outputs": [],
      "stateMutability": "nonpayable",
      "type": "function"
    },
    {
      "inputs": [
        {
          "internalType": "address",
          "name": "operator",
          "type": "address"
        },
        {
          "internalType": "bool",
          "name": "approved",
          "type": "bool"
        }
      ],
      "name": "setApprovalForAll",
      "outputs": [],
      "stateMutability": "nonpayable",
      "type": "function"
    },
    {
      "inputs": [
        {
          "internalType": "bytes4",
          "name": "interfaceId",
          "type": "bytes4"
        }
      ],
      "name": "supportsInterface",
      "outputs": [
        {
          "internalType": "bool",
          "name": "",
          "type": "bool"
        }
      ],
      "stateMutability": "view",
      "type": "function"
    },
    {
      "inputs": [],
      "name": "symbol",
      "outputs": [
        {
          "internalType": "string",
          "name": "",
          "type": "string"
        }
      ],
      "stateMutability": "view",
      "type": "function"
    },
    {
      "inputs": [],
      "name": "tokenIdCounter",
      "outputs": [
        {
          "internalType": "uint256",
          "name": "",
          "type": "uint256"
        }
      ],
      "stateMutability": "view",
      "type": "function"
    },
    {
      "inputs": [
        {
          "internalType": "uint256",
          "name": "tokenId",
          "type": "uint256"
        }
      ],
      "name": "tokenURI",
      "outputs": [
        {
          "internalType": "string",
          "name": "",
          "type": "string"
        }
      ],
      "stateMutability": "view",
      "type": "function"
    },
    {
      "inputs": [
        {
          "internalType": "address",
          "name": "from",
          "type": "address"
        },
        {
          "internalType": "address",
          "name": "to",
          "type": "address"
        },
        {
          "internalType": "uint256",
          "name": "tokenId",
          "type": "uint256"
        }
      ],
      "name": "transferFrom",
      "outputs": [],
      "stateMutability": "nonpayable",
      "type": "function"
    },
    {
      "inputs": [
        {
          "internalType": "address",
          "name": "student",
          "type": "address"
        },
        {
          "internalType": "string",
          "name": "metadataURI",
          "type": "string"
        }
      ],
      "name": "mintAttendance",
      "outputs": [],
      "stateMutability": "nonpayable",
      "type": "function"
    }
  ],
  "bytecode": "0x60806040523480156200001157600080fd5b506040516200182b3803806200182b83398101604081905262000034916200016b565b604080518082018252600d81526c105d1d195b99185b98d954d095609a1b6020808301918252835180850190945260048452631054d09560e21b9084015281519192916200008591600091620000c5565b5080516200009b906001906020840190620000c5565b5050600880546001600160a01b0319166001600160a01b03939093169290921790915550620001d9565b828054620000d3906200019d565b90600052602060002090601f016020900481019282620000f7576000855562000142565b82601f106200011257805160ff191683800117855562000142565b8280016001018555821562000142579182015b828111156200014257825182559160200191906001019062000125565b506200015092915062000154565b5090565b5b8082111562000150576000815560010162000155565b6000602082840312156200017e57600080fd5b81516001600160a01b03811681146200019657600080fd5b9392505050565b600181811c90821680620001b257607f821691505b602082108103620001d357634e487b7160e01b600052602260045260246000fd5b50919050565b61164280620001e96000396000f3fe608060405234801561001057600080fd5b50600436106101005760003560e01c806370a0823111610097578063b88d4fde11610066578063b88d4fde14610213578063c87b56dd14610226578063e985e9c514610239578063f851a4401461027557600080fd5b806370a08231146101ce57806395d89b41146101ef57806398bdf6f5146101f7578063a22cb4651461020057600080fd5b806323b872dd116100d357806323b872dd14610182578063278c32de1461019557806342842e0e146101a85780636352211e146101bb57600080fd5b806301ffc9a71461010557806306fdde031461012d578063081812fc14610142578063095ea7b31461016d575b600080fd5b610118610113366004611127565b610288565b60405190151581526020015b60405180910390f35b6101356102da565b604051610124919061119c565b6101556101503660046111af565b61036c565b6040516001600160a01b039091168152602001610124565b61018061017b3660046111e4565b610393565b005b61018061019036600461120e565b6104ad565b6101806101a33660046112d6565b6104de565b6101806101b636600461120e565b610559565b6101556101c93660046111af565b610574565b6101e16101dc366004611338565b6105d4565b604051908152602001610124565b61013561065a565b6101e160075481565b61018061020e366004611353565b610669565b61018061022136600461138f565b610678565b6101356102343660046111af565b6106b0565b61011861024736600461140b565b6001600160a01b03918216600090815260056020908152604080832093909416825291909152205460ff1690565b600854610155906001600160a01b031681565b60006001600160e01b031982166380ac58cd60e01b14806102b957506001600160e01b03198216635b5e139f60e01b145b806102d457506301ffc9a760e01b6001600160e01b03198316145b92915050565b6060600080546102e99061143e565b80601f01602080910402602001604051908101604052809291908181526020018280546103159061143e565b80156103625780601f1061033757610100808354040283529160200191610362565b820191906000526020600020905b81548152906001019060200180831161034557829003601f168201915b5050505050905090565b6000610377826107c0565b506000908152600460205260409020546001600160a01b031690565b600061039e82610574565b9050806001600160a01b0316836001600160a01b0316036104105760405162461bcd60e51b815260206004820152602160248201527f4552433732313a20617070726f76616c20746f2063757272656e74206f776e656044820152603960f91b60648201526084015b60405180910390fd5b336001600160a01b038216148061042c575061042c8133610247565b61049e5760405162461bcd60e51b815260206004820152603d60248201527f4552433732313a20617070726f76652063616c6c6572206973206e6f7420746f60448201527f6b656e206f776e6572206f7220617070726f76656420666f7220616c6c0000006064820152608401610407565b6104a88383610822565b505050565b6104b73382610890565b6104d35760405162461bcd60e51b815260040161040790611478565b6104a883838361090e565b6008546001600160a01b0316331461052e5760405162461bcd60e51b815260206004820152601360248201527213db9b1e4818591b5a5b8818d85b881b5a5b9d606a1b6044820152606401610407565b600780546000918261053f836114c5565b91905055905061054f8382610a72565b6104a88183610bfd565b6104a883838360405180602001604052806000815250610678565b6000818152600260205260408120546001600160a01b0316806102d45760405162461bcd60e51b8152602060048201526018602482015277115490cdcc8c4e881a5b9d985b1a59081d1bdad95b88125160421b6044820152606401610407565b60006001600160a01b03821661063e5760405162461bcd60e51b815260206004820152602960248201527f4552433732313a2061646472657373207a65726f206973206e6f7420612076616044820152683634b21037bbb732b960b91b6064820152608401610407565b506001600160a01b031660009081526003602052604090205490565b6060600180546102e99061143e565b610674338383610c97565b5050565b6106823383610890565b61069e5760405162461bcd60e51b815260040161040790611478565b6106aa84848484610d65565b50505050565b60606106bb826107c0565b600082815260066020526040812080546106d49061143e565b80601f01602080910402602001604051908101604052809291908181526020018280546107009061143e565b801561074d5780601f106107225761010080835404028352916020019161074d565b820191906000526020600020905b81548152906001019060200180831161073057829003601f168201915b50505050509050600061076b60408051602081019091526000815290565b9050805160000361077d575092915050565b8151156107af5780826040516020016107979291906114ec565b60405160208183030381529060405292505050919050565b6107b884610d98565b949350505050565b6000818152600260205260409020546001600160a01b031661081f5760405162461bcd60e51b8152602060048201526018602482015277115490cdcc8c4e881a5b9d985b1a59081d1bdad95b88125160421b6044820152606401610407565b50565b600081815260046020526040902080546001600160a01b0319166001600160a01b038416908117909155819061085782610574565b6001600160a01b03167f8c5be1e5ebec7d5bd14f71427d1e84f3dd0314c0f7b2291e5b200ac8c7c3b92560405160405180910390a45050565b60008061089c83610574565b9050806001600160a01b0316846001600160a01b031614806108e357506001600160a01b0380821660009081526005602090815260408083209388168352929052205460ff165b806107b85750836001600160a01b03166108fc8461036c565b6001600160a01b031614949350505050565b826001600160a01b031661092182610574565b6001600160a01b0316146109475760405162461bcd60e51b81526004016104079061151b565b6001600160a01b0382166109a95760405162461bcd60e51b8152602060048201526024808201527f4552433732313a207472616e7366657220746f20746865207a65726f206164646044820152637265737360e01b6064820152608401610407565b826001600160a01b03166109bc82610574565b6001600160a01b0316146109e25760405162461bcd60e51b81526004016104079061151b565b600081815260046020908152604080832080546001600160a01b03199081169091556001600160a01b0387811680865260038552838620805460001901905590871680865283862080546001019055868652600290945282852080549092168417909155905184937fddf252ad1be2c89b69c2b068fc378daa952ba7f163c4a11628f55a4df523b3ef91a4505050565b6001600160a01b038216610ac85760405162461bcd60e51b815260206004820181905260248201527f4552433732313a206d696e7420746f20746865207a65726f20616464726573736044820152606401610407565b6000818152600260205260409020546001600160a01b031615610b2d5760405162461bcd60e51b815260206004820152601c60248201527f4552433732313a20746f6b656e20616c7265616479206d696e746564000000006044820152606401610407565b6000818152600260205260409020546001600160a01b031615610b925760405162461bcd60e51b815260206004820152601c60248201527f4552433732313a20746f6b656e20616c7265616479206d696e746564000000006044820152606401610407565b6001600160a01b038216600081815260036020908152604080832080546001019055848352600290915280822080546001600160a01b0319168417905551839291907fddf252ad1be2c89b69c2b068fc378daa952ba7f163c4a11628f55a4df523b3ef908290a45050565b6000828152600260205260409020546001600160a01b0316610c785760405162461bcd60e51b815260206004820152602e60248201527f45524337323155524953746f726167653a2055524920736574206f66206e6f6e60448201526d32bc34b9ba32b73a103a37b5b2b760911b6064820152608401610407565b600082815260066020908152604090912082516104a892840190611078565b816001600160a01b0316836001600160a01b031603610cf85760405162461bcd60e51b815260206004820152601960248201527f4552433732313a20617070726f766520746f2063616c6c6572000000000000006044820152606401610407565b6001600160a01b03838116600081815260056020908152604080832094871680845294825291829020805460ff191686151590811790915591519182527f17307eab39ab6107e8899845ad3d59bd9653f200f220920489ca2b5937696c31910160405180910390a3505050565b610d7084848461090e565b610d7c84848484610e0c565b6106aa5760405162461bcd60e51b815260040161040790611560565b6060610da3826107c0565b6000610dba60408051602081019091526000815290565b90506000815111610dda5760405180602001604052806000815250610e05565b80610de484610f0d565b604051602001610df59291906114ec565b6040516020818303038152906040525b9392505050565b60006001600160a01b0384163b15610f0257604051630a85bd0160e11b81526001600160a01b0385169063150b7a0290610e509033908990889088906004016115b2565b6020604051808303816000875af1925050508015610e8b575060408051601f3d908101601f19168201909252610e88918101906115ef565b60015b610ee8573d808015610eb9576040519150601f19603f3d011682016040523d82523d6000602084013e610ebe565b606091505b508051600003610ee05760405162461bcd60e51b815260040161040790611560565b805181602001fd5b6001600160e01b031916630a85bd0160e11b1490506107b8565b506001949350505050565b60606000610f1a83610fa0565b600101905060008167ffffffffffffffff811115610f3a57610f3a61124a565b6040519080825280601f01601f191660200182016040528015610f64576020820181803683370190505b5090508181016020015b600019016f181899199a1a9b1b9c1cb0b131b232b360811b600a86061a8153600a8504945084610f6e57509392505050565b60008072184f03e93ff9f4daa797ed6e38ed64bf6a1f0160401b8310610fdf5772184f03e93ff9f4daa797ed6e38ed64bf6a1f0160401b830492506040015b6d04ee2d6d415b85acef8100000000831061100b576d04ee2d6d415b85acef8100000000830492506020015b662386f26fc10000831061102957662386f26fc10000830492506010015b6305f5e1008310611041576305f5e100830492506008015b612710831061105557612710830492506004015b60648310611067576064830492506002015b600a83106102d45760010192915050565b8280546110849061143e565b90600052602060002090601f0160209004810192826110a657600085556110ec565b82601f106110bf57805160ff19168380011785556110ec565b828001600101855582156110ec579182015b828111156110ec5782518255916020019190600101906110d1565b506110f89291506110fc565b5090565b5b808211156110f857600081556001016110fd565b6001600160e01b03198116811461081f57600080fd5b60006020828403121561113957600080fd5b8135610e0581611111565b60005b8381101561115f578181015183820152602001611147565b838111156106aa5750506000910152565b60008151808452611188816020860160208601611144565b601f01601f19169290920160200192915050565b602081526000610e056020830184611170565b6000602082840312156111c157600080fd5b5035919050565b80356001600160a01b03811681146111df57600080fd5b919050565b600080604083850312156111f757600080fd5b611200836111c8565b946020939093013593505050565b60008060006060848603121561122357600080fd5b61122c846111c8565b925061123a602085016111c8565b9150604084013590509250925092565b634e487b7160e01b600052604160045260246000fd5b600067ffffffffffffffff8084111561127b5761127b61124a565b604051601f8501601f19908116603f011681019082821181831017156112a3576112a361124a565b816040528093508581528686860111156112bc57600080fd5b858560208301376000602087830101525050509392505050565b600080604083850312156112e957600080fd5b6112f2836111c8565b9150602083013567ffffffffffffffff81111561130e57600080fd5b8301601f8101851361131f57600080fd5b61132e85823560208401611260565b9150509250929050565b60006020828403121561134a57600080fd5b610e05826111c8565b6000806040838503121561136657600080fd5b61136f836111c8565b91506020830135801515811461138457600080fd5b809150509250929050565b600080600080608085870312156113a557600080fd5b6113ae856111c8565b93506113bc602086016111c8565b925060408501359150606085013567ffffffffffffffff8111156113df57600080fd5b8501601f810187136113f057600080fd5b6113ff87823560208401611260565b91505092959194509250565b6000806040838503121561141e57600080fd5b611427836111c8565b9150611435602084016111c8565b90509250929050565b600181811c9082168061145257607f821691505b60208210810361147257634e487b7160e01b600052602260045260246000fd5b50919050565b6020808252602d908201527f4552433732313a2063616c6c6572206973206e6f7420746f6b656e206f776e6560408201526c1c881bdc88185c1c1c9bdd9959609a1b606082015260800190565b6000600182016114e557634e487b7160e01b600052601160045260246000fd5b5060010190565b600083516114fe818460208801611144565b835190830190611512818360208801611144565b01949350505050565b60208082526025908201527f4552433732313a207472616e736665722066726f6d20696e636f72726563742060408201526437bbb732b960d91b606082015260800190565b60208082526032908201527f4552433732313a207472616e7366657220746f206e6f6e20455243373231526560408201527131b2b4bb32b91034b6b83632b6b2b73a32b960711b606082015260800190565b6001600160a01b03858116825284166020820152604081018390526080606082018190526000906115e590830184611170565b9695505050505050565b60006020828403121561160157600080fd5b8151610e058161111156fea2646970667358221220c6abc8271179d810aa291bc38827bac4d7d3304c79efc721e97aadab439c7ba164736f6c634300080d0033",
  "immutableReferences": {},
  "source": "// SPDX-License-Identifier: MIT\r\npragma solidity >=0.4.22 <0.9.0;\r\n\r\nimport \"@openzeppelin/contracts/token/ERC721/extensions/ERC721URIStorage.sol\";\r\n\r\ncontract AttendanceSBT is ERC721URIStorage {\r\n    uint256 public tokenIdCounter;\r\n    address public admin;\r\n\r\n    constructor(address _admin) ERC721(\"AttendanceSBT\", \"ASBT\") {\r\n        admin = _admin;\r\n    }\r\n\r\n    function mintAttendance(\r\n        address student,\r\n        string memory metadataURI\r\n    ) external {\r\n        require(msg.sender == admin, \"Only admin can mint\");\r\n        uint256 newId = tokenIdCounter++;\r\n        _mint(student, newId);\r\n        _setTokenURI(newId, metadataURI);\r\n    }\r\n\r\n    function _beforeTokenTransfer(\r\n        address from,\r\n        address to,\r\n        uint256\r\n    ) internal pure {\r\n        require(\r\n            from == address(0) || to == address(0),\r\n            \"Soulbound: non-transferable\"\r\n        );\r\n    }\r\n}\r\n",
  "sourcePath": "D:\\Hackathon\\Hackhazards_2k25\\smart_campus_toolkit\\contracts\\AttendanceSBT.sol",
  "compiler": {
    "name": "solc",
    "version": "0.8.13+commit.abaa5c0e.Emscripten.clang"
  },
  "schemaVersion": "3.4.4",
  "updatedAt": "2025-04-15T18:54:46.317Z",
  "devdoc": {
    "kind": "dev",
    "methods": {
      "approve(address,uint256)": {
        "details": "See {IERC721-approve}."
      },
      "balanceOf(address)": {
        "details": "See {IERC721-balanceOf}."
      },
      "getApproved(uint256)": {
        "details": "See {IERC721-getApproved}."
      },
      "isApprovedForAll(address,address)": {
        "details": "See {IERC721-isApprovedForAll}."
      },
      "name()": {
        "details": "See {IERC721Metadata-name}."
      },
      "ownerOf(uint256)": {
        "details": "See {IERC721-ownerOf}."
      },
      "safeTransferFrom(address,address,uint256)": {
        "details": "See {IERC721-safeTransferFrom}."
      },
      "safeTransferFrom(address,address,uint256,bytes)": {
        "details": "See {IERC721-safeTransferFrom}."
      },
      "setApprovalForAll(address,bool)": {
        "details": "See {IERC721-setApprovalForAll}."
      },
      "supportsInterface(bytes4)": {
        "details": "See {IERC165-supportsInterface}."
      },
      "symbol()": {
        "details": "See {IERC721Metadata-symbol}."
      },
      "tokenURI(uint256)": {
        "details": "See {IERC721Metadata-tokenURI}."
      },
      "transferFrom(address,address,uint256)": {
        "details": "See {IERC721-transferFrom}."
      }
    },
    "version": 1
  },
  "userdoc": {
    "kind": "user",
    "methods": {},
    "version": 1
  }
}