{
  "contractName": "CampusAdmin",
  "abi": [
    {
      "inputs": [],
      "stateMutability": "nonpayable",
      "type": "constructor"
    },
    {
      "inputs": [],
      "name": "owner",
      "outputs": [
        {
          "internalType": "address",
          "name": "",
          "type": "address"
        }
      ],
      "stateMutability": "view",
      "type": "function"
    },
    {
      "inputs": [
        {
          "internalType": "address",
          "name": "",
          "type": "address"
        }
      ],
      "name": "roles",
      "outputs": [
        {
          "internalType": "string",
          "name": "",
          "type": "string"
        }
      ],
      "stateMutability": "view",
      "type": "function"
    },
    {
      "inputs": [
        {
          "internalType": "address",
          "name": "user",
          "type": "address"
        },
        {
          "internalType": "string",
          "name": "role",
          "type": "string"
        }
      ],
      "name": "assignRole",
      "outputs": [],
      "stateMutability": "nonpayable",
      "type": "function"
    },
    {
      "inputs": [
        {
          "internalType": "address",
          "name": "user",
          "type": "address"
        }
      ],
      "name": "getRole",
      "outputs": [
        {
          "internalType": "string",
          "name": "",
          "type": "string"
        }
      ],
      "stateMutability": "view",
      "type": "function"
    }
  ],
  "bytecode": "0x608060405234801561001057600080fd5b50600180546001600160a01b031916331790556104fe806100326000396000f3fe608060405234801561001057600080fd5b506004361061004c5760003560e01c806344276733146100515780638da5cb5b1461007a57806399374642146100a5578063b7dfcbee146100b8575b600080fd5b61006461005f36600461033f565b6100cd565b6040516100719190610361565b60405180910390f35b60015461008d906001600160a01b031681565b6040516001600160a01b039091168152602001610071565b6100646100b336600461033f565b610179565b6100cb6100c63660046103cc565b610213565b005b6001600160a01b03811660009081526020819052604090208054606091906100f49061048e565b80601f01602080910402602001604051908101604052809291908181526020018280546101209061048e565b801561016d5780601f106101425761010080835404028352916020019161016d565b820191906000526020600020905b81548152906001019060200180831161015057829003601f168201915b50505050509050919050565b600060208190529081526040902080546101929061048e565b80601f01602080910402602001604051908101604052809291908181526020018280546101be9061048e565b801561020b5780601f106101e05761010080835404028352916020019161020b565b820191906000526020600020905b8154815290600101906020018083116101ee57829003601f168201915b505050505081565b6001546001600160a01b0316331461025e5760405162461bcd60e51b815260206004820152600a60248201526927b7363c9037bbb732b960b11b604482015260640160405180910390fd5b6001600160a01b03821660009081526020818152604090912082516102859284019061028a565b505050565b8280546102969061048e565b90600052602060002090601f0160209004810192826102b857600085556102fe565b82601f106102d157805160ff19168380011785556102fe565b828001600101855582156102fe579182015b828111156102fe5782518255916020019190600101906102e3565b5061030a92915061030e565b5090565b5b8082111561030a576000815560010161030f565b80356001600160a01b038116811461033a57600080fd5b919050565b60006020828403121561035157600080fd5b61035a82610323565b9392505050565b600060208083528351808285015260005b8181101561038e57858101830151858201604001528201610372565b818111156103a0576000604083870101525b50601f01601f1916929092016040019392505050565b634e487b7160e01b600052604160045260246000fd5b600080604083850312156103df57600080fd5b6103e883610323565b9150602083013567ffffffffffffffff8082111561040557600080fd5b818501915085601f83011261041957600080fd5b81358181111561042b5761042b6103b6565b604051601f8201601f19908116603f01168101908382118183101715610453576104536103b6565b8160405282815288602084870101111561046c57600080fd5b8260208601602083013760006020848301015280955050505050509250929050565b600181811c908216806104a257607f821691505b6020821081036104c257634e487b7160e01b600052602260045260246000fd5b5091905056fea26469706673582212205da0f8287590981a22a86008584d4c842aa1f46de0c492a2d415876d9707c87964736f6c634300080d0033",
  "immutableReferences": {},
  "source": "// SPDX-License-Identifier: MIT\r\npragma solidity >=0.4.22 <0.9.0;\r\n\r\ncontract CampusAdmin {\r\n    mapping(address => string) public roles;\r\n    address public owner;\r\n\r\n    constructor() {\r\n        owner = msg.sender;\r\n    }\r\n\r\n    function assignRole(address user, string memory role) public {\r\n        require(msg.sender == owner, \"Only owner\");\r\n        roles[user] = role;\r\n    }\r\n\r\n    function getRole(address user) public view returns (string memory) {\r\n        return roles[user];\r\n    }\r\n}\r\n",
  "sourcePath": "D:\\Hackathon\\Hackhazards_2k25\\smart_campus_toolkit\\contracts\\CampusAdmin.sol",
  "compiler": {
    "name": "solc",
    "version": "0.8.13+commit.abaa5c0e.Emscripten.clang"
  },
  "schemaVersion": "3.4.4",
  "updatedAt": "2025-04-16T05:46:02.009Z",
  "devdoc": {
    "kind": "dev",
    "methods": {},
    "version": 1
  },
  "userdoc": {
    "kind": "user",
    "methods": {},
    "version": 1
  }
}