{
  "contractName": "LostAndFound",
  "abi": [
    {
      "inputs": [],
      "name": "itemCount",
      "outputs": [
        {
          "internalType": "uint256",
          "name": "",
          "type": "uint256"
        }
      ],
      "stateMutability": "view",
      "type": "function"
    },
    {
      "inputs": [
        {
          "internalType": "uint256",
          "name": "",
          "type": "uint256"
        }
      ],
      "name": "items",
      "outputs": [
        {
          "internalType": "string",
          "name": "description",
          "type": "string"
        },
        {
          "internalType": "string",
          "name": "photoURI",
          "type": "string"
        },
        {
          "internalType": "address",
          "name": "finder",
          "type": "address"
        },
        {
          "internalType": "uint256",
          "name": "timestamp",
          "type": "uint256"
        },
        {
          "internalType": "bool",
          "name": "claimed",
          "type": "bool"
        }
      ],
      "stateMutability": "view",
      "type": "function"
    },
    {
      "inputs": [
        {
          "internalType": "string",
          "name": "desc",
          "type": "string"
        },
        {
          "internalType": "string",
          "name": "photoURI",
          "type": "string"
        }
      ],
      "name": "reportItem",
      "outputs": [],
      "stateMutability": "nonpayable",
      "type": "function"
    },
    {
      "inputs": [
        {
          "internalType": "uint256",
          "name": "itemId",
          "type": "uint256"
        }
      ],
      "name": "claimItem",
      "outputs": [],
      "stateMutability": "nonpayable",
      "type": "function"
    }
  ],
  "bytecode": "0x608060405234801561001057600080fd5b5061062e806100206000396000f3fe608060405234801561001057600080fd5b506004361061004c5760003560e01c8063379f0592146100515780636bfb0d01146100665780637da393e014610082578063bfb231d214610095575b600080fd5b61006461005f36600461047f565b6100b9565b005b61006f60015481565b6040519081526020015b60405180910390f35b6100646100903660046104e3565b610180565b6100a86100a33660046104e3565b6101f6565b604051610079959493929190610549565b6040805160a0810182528381526020808201849052338284015242606083015260006080830181905260015481528082529290922081518051929391926101039284920190610343565b50602082810151805161011c9260018501920190610343565b5060408201516002820180546001600160a01b0319166001600160a01b03909216919091179055606082015160038201556080909101516004909101805460ff19169115159190911790556001805490600061017783610597565b91905055505050565b60008181526020819052604090206004015460ff16156101d85760405162461bcd60e51b815260206004820152600f60248201526e105b1c9958591e4818db185a5b5959608a1b604482015260640160405180910390fd5b6000908152602081905260409020600401805460ff19166001179055565b600060208190529081526040902080548190610211906105be565b80601f016020809104026020016040519081016040528092919081815260200182805461023d906105be565b801561028a5780601f1061025f5761010080835404028352916020019161028a565b820191906000526020600020905b81548152906001019060200180831161026d57829003601f168201915b50505050509080600101805461029f906105be565b80601f01602080910402602001604051908101604052809291908181526020018280546102cb906105be565b80156103185780601f106102ed57610100808354040283529160200191610318565b820191906000526020600020905b8154815290600101906020018083116102fb57829003601f168201915b505050506002830154600384015460049094015492936001600160a01b039091169290915060ff1685565b82805461034f906105be565b90600052602060002090601f01602090048101928261037157600085556103b7565b82601f1061038a57805160ff19168380011785556103b7565b828001600101855582156103b7579182015b828111156103b757825182559160200191906001019061039c565b506103c39291506103c7565b5090565b5b808211156103c357600081556001016103c8565b634e487b7160e01b600052604160045260246000fd5b600082601f83011261040357600080fd5b813567ffffffffffffffff8082111561041e5761041e6103dc565b604051601f8301601f19908116603f01168101908282118183101715610446576104466103dc565b8160405283815286602085880101111561045f57600080fd5b836020870160208301376000602085830101528094505050505092915050565b6000806040838503121561049257600080fd5b823567ffffffffffffffff808211156104aa57600080fd5b6104b6868387016103f2565b935060208501359150808211156104cc57600080fd5b506104d9858286016103f2565b9150509250929050565b6000602082840312156104f557600080fd5b5035919050565b6000815180845260005b8181101561052257602081850181015186830182015201610506565b81811115610534576000602083870101525b50601f01601f19169290920160200192915050565b60a08152600061055c60a08301886104fc565b828103602084015261056e81886104fc565b6001600160a01b0396909616604084015250506060810192909252151560809091015292915050565b6000600182016105b757634e487b7160e01b600052601160045260246000fd5b5060010190565b600181811c908216806105d257607f821691505b6020821081036105f257634e487b7160e01b600052602260045260246000fd5b5091905056fea26469706673582212205d9c06285584d4ce44e4c60d5af1ca0d64a785b9c559c1231e3d69ca46db2ab164736f6c634300080d0033",
  "immutableReferences": {},
  "source": "// SPDX-License-Identifier: MIT\r\npragma solidity >=0.4.22 <0.9.0;\r\n\r\ncontract LostAndFound {\r\n    struct Item {\r\n        string description;\r\n        string photoURI;\r\n        address finder;\r\n        uint256 timestamp;\r\n        bool claimed;\r\n    }\r\n\r\n    mapping(uint256 => Item) public items;\r\n    uint256 public itemCount;\r\n\r\n    function reportItem(string memory desc, string memory photoURI) public {\r\n        items[itemCount] = Item(desc, photoURI, msg.sender, block.timestamp, false);\r\n        itemCount++;\r\n    }\r\n\r\n    function claimItem(uint256 itemId) public {\r\n        require(!items[itemId].claimed, \"Already claimed\");\r\n        items[itemId].claimed = true;\r\n    }\r\n}\r\n",
  "sourcePath": "D:\\Hackathon\\Hackhazards_2k25\\smart_campus_toolkit\\contracts\\LostAndFound.sol",
  "compiler": {
    "name": "solc",
    "version": "0.8.13+commit.abaa5c0e.Emscripten.clang"
  },
  "schemaVersion": "3.4.4",
  "updatedAt": "2025-04-16T05:46:02.044Z",
  "devdoc": {
    "kind": "dev",
    "methods": {},
    "version": 1
  },
  "userdoc": {
    "kind": "user",
    "methods": {},
    "version": 1
  }
}