{
  "contractName": "RoomBookingNFT",
  "abi": [
    {
      "inputs": [
        {
          "internalType": "address",
          "name": "_admin",
          "type": "address"
        }
      ],
      "stateMutability": "nonpayable",
      "type": "constructor"
    },
    {
      "anonymous": false,
      "inputs": [
        {
          "indexed": true,
          "internalType": "address",
          "name": "owner",
          "type": "address"
        },
        {
          "indexed": true,
          "internalType": "address",
          "name": "approved",
          "type": "address"
        },
        {
          "indexed": true,
          "internalType": "uint256",
          "name": "tokenId",
          "type": "uint256"
        }
      ],
      "name": "Approval",
      "type": "event"
    },
    {
      "anonymous": false,
      "inputs": [
        {
          "indexed": true,
          "internalType": "address",
          "name": "owner",
          "type": "address"
        },
        {
          "indexed": true,
          "internalType": "address",
          "name": "operator",
          "type": "address"
        },
        {
          "indexed": false,
          "internalType": "bool",
          "name": "approved",
          "type": "bool"
        }
      ],
      "name": "ApprovalForAll",
      "type": "event"
    },
    {
      "anonymous": false,
      "inputs": [
        {
          "indexed": true,
          "internalType": "address",
          "name": "from",
          "type": "address"
        },
        {
          "indexed": true,
          "internalType": "address",
          "name": "to",
          "type": "address"
        },
        {
          "indexed": true,
          "internalType": "uint256",
          "name": "tokenId",
          "type": "uint256"
        }
      ],
      "name": "Transfer",
      "type": "event"
    },
    {
      "inputs": [],
      "name": "admin",
      "outputs": [
        {
          "internalType": "address",
          "name": "",
          "type": "address"
        }
      ],
      "stateMutability": "view",
      "type": "function"
    },
    {
      "inputs": [
        {
          "internalType": "address",
          "name": "to",
          "type": "address"
        },
        {
          "internalType": "uint256",
          "name": "tokenId",
          "type": "uint256"
        }
      ],
      "name": "approve",
      "outputs": [],
      "stateMutability": "nonpayable",
      "type": "function"
    },
    {
      "inputs": [
        {
          "internalType": "address",
          "name": "owner",
          "type": "address"
        }
      ],
      "name": "balanceOf",
      "outputs": [
        {
          "internalType": "uint256",
          "name": "",
          "type": "uint256"
        }
      ],
      "stateMutability": "view",
      "type": "function"
    },
    {
      "inputs": [],
      "name": "bookingId",
      "outputs": [
        {
          "internalType": "uint256",
          "name": "",
          "type": "uint256"
        }
      ],
      "stateMutability": "view",
      "type": "function"
    },
    {
      "inputs": [
        {
          "internalType": "uint256",
          "name": "",
          "type": "uint256"
        }
      ],
      "name": "bookings",
      "outputs": [
        {
          "internalType": "uint256",
          "name": "roomId",
          "type": "uint256"
        },
        {
          "internalType": "uint256",
          "name": "startTime",
          "type": "uint256"
        },
        {
          "internalType": "uint256",
          "name": "endTime",
          "type": "uint256"
        }
      ],
      "stateMutability": "view",
      "type": "function"
    },
    {
      "inputs": [
        {
          "internalType": "uint256",
          "name": "tokenId",
          "type": "uint256"
        }
      ],
      "name": "getApproved",
      "outputs": [
        {
          "internalType": "address",
          "name": "",
          "type": "address"
        }
      ],
      "stateMutability": "view",
      "type": "function"
    },
    {
      "inputs": [
        {
          "internalType": "address",
          "name": "owner",
          "type": "address"
        },
        {
          "internalType": "address",
          "name": "operator",
          "type": "address"
        }
      ],
      "name": "isApprovedForAll",
      "outputs": [
        {
          "internalType": "bool",
          "name": "",
          "type": "bool"
        }
      ],
      "stateMutability": "view",
      "type": "function"
    },
    {
      "inputs": [],
      "name": "name",
      "outputs": [
        {
          "internalType": "string",
          "name": "",
          "type": "string"
        }
      ],
      "stateMutability": "view",
      "type": "function"
    },
    {
      "inputs": [
        {
          "internalType": "uint256",
          "name": "tokenId",
          "type": "uint256"
        }
      ],
      "name": "ownerOf",
      "outputs": [
        {
          "internalType": "address",
          "name": "",
          "type": "address"
        }
      ],
      "stateMutability": "view",
      "type": "function"
    },
    {
      "inputs": [
        {
          "internalType": "address",
          "name": "from",
          "type": "address"
        },
        {
          "internalType": "address",
          "name": "to",
          "type": "address"
        },
        {
          "internalType": "uint256",
          "name": "tokenId",
          "type": "uint256"
        }
      ],
      "name": "safeTransferFrom",
      "outputs": [],
      "stateMutability": "nonpayable",
      "type": "function"
    },
    {
      "inputs": [
        {
          "internalType": "address",
          "name": "from",
          "type": "address"
        },
        {
          "internalType": "address",
          "name": "to",
          "type": "address"
        },
        {
          "internalType": "uint256",
          "name": "tokenId",
          "type": "uint256"
        },
        {
          "internalType": "bytes",
          "name": "data",
          "type": "bytes"
        }
      ],
      "name": "safeTransferFrom",
      "outputs": [],
      "stateMutability": "nonpayable",
      "type": "function"
    },
    {
      "inputs": [
        {
          "internalType": "address",
          "name": "operator",
          "type": "address"
        },
        {
          "internalType": "bool",
          "name": "approved",
          "type": "bool"
        }
      ],
      "name": "setApprovalForAll",
      "outputs": [],
      "stateMutability": "nonpayable",
      "type": "function"
    },
    {
      "inputs": [
        {
          "internalType": "bytes4",
          "name": "interfaceId",
          "type": "bytes4"
        }
      ],
      "name": "supportsInterface",
      "outputs": [
        {
          "internalType": "bool",
          "name": "",
          "type": "bool"
        }
      ],
      "stateMutability": "view",
      "type": "function"
    },
    {
      "inputs": [],
      "name": "symbol",
      "outputs": [
        {
          "internalType": "string",
          "name": "",
          "type": "string"
        }
      ],
      "stateMutability": "view",
      "type": "function"
    },
    {
      "inputs": [
        {
          "internalType": "uint256",
          "name": "tokenId",
          "type": "uint256"
        }
      ],
      "name": "tokenURI",
      "outputs": [
        {
          "internalType": "string",
          "name": "",
          "type": "string"
        }
      ],
      "stateMutability": "view",
      "type": "function"
    },
    {
      "inputs": [
        {
          "internalType": "address",
          "name": "from",
          "type": "address"
        },
        {
          "internalType": "address",
          "name": "to",
          "type": "address"
        },
        {
          "internalType": "uint256",
          "name": "tokenId",
          "type": "uint256"
        }
      ],
      "name": "transferFrom",
      "outputs": [],
      "stateMutability": "nonpayable",
      "type": "function"
    },
    {
      "inputs": [
        {
          "internalType": "address",
          "name": "user",
          "type": "address"
        },
        {
          "internalType": "uint256",
          "name": "roomId",
          "type": "uint256"
        },
        {
          "internalType": "uint256",
          "name": "startTime",
          "type": "uint256"
        },
        {
          "internalType": "uint256",
          "name": "endTime",
          "type": "uint256"
        }
      ],
      "name": "bookRoom",
      "outputs": [],
      "stateMutability": "nonpayable",
      "type": "function"
    },
    {
      "inputs": [
        {
          "internalType": "uint256",
          "name": "tokenId",
          "type": "uint256"
        }
      ],
      "name": "burn",
      "outputs": [],
      "stateMutability": "nonpayable",
      "type": "function"
    }
  ],
  "bytecode": "0x60806040523480156200001157600080fd5b50604051620017443803806200174483398101604081905262000034916200016a565b604080518082018252600b81526a526f6f6d426f6f6b696e6760a81b602080830191825283518085019094526005845264149093919560da1b9084015281519192916200008491600091620000c4565b5080516200009a906001906020840190620000c4565b5050600780546001600160a01b0319166001600160a01b03939093169290921790915550620001d8565b828054620000d2906200019c565b90600052602060002090601f016020900481019282620000f6576000855562000141565b82601f106200011157805160ff191683800117855562000141565b8280016001018555821562000141579182015b828111156200014157825182559160200191906001019062000124565b506200014f92915062000153565b5090565b5b808211156200014f576000815560010162000154565b6000602082840312156200017d57600080fd5b81516001600160a01b03811681146200019557600080fd5b9392505050565b600181811c90821680620001b157607f821691505b602082108103620001d257634e487b7160e01b600052602260045260246000fd5b50919050565b61155c80620001e86000396000f3fe608060405234801561001057600080fd5b50600436106101165760003560e01c80636352211e116100a2578063b88d4fde11610071578063b88d4fde14610273578063bfb4efc914610286578063c87b56dd14610299578063e985e9c5146102ac578063f851a440146102e857600080fd5b80636352211e1461023257806370a082311461024557806395d89b4114610258578063a22cb4651461026057600080fd5b80630a10df7c116100e95780630a10df7c146101985780631dab301e146101af57806323b872dd146101f957806342842e0e1461020c57806342966c681461021f57600080fd5b806301ffc9a71461011b57806306fdde0314610143578063081812fc14610158578063095ea7b314610183575b600080fd5b61012e610129366004611080565b6102fb565b60405190151581526020015b60405180910390f35b61014b61034d565b60405161013a91906110f5565b61016b610166366004611108565b6103df565b6040516001600160a01b03909116815260200161013a565b61019661019136600461113d565b610406565b005b6101a160065481565b60405190815260200161013a565b6101de6101bd366004611108565b60086020526000908152604090208054600182015460029092015490919083565b6040805193845260208401929092529082015260600161013a565b610196610207366004611167565b610520565b61019661021a366004611167565b610551565b61019661022d366004611108565b61056c565b61016b610240366004611108565b6105c8565b6101a16102533660046111a3565b610628565b61014b6106ae565b61019661026e3660046111be565b6106bd565b610196610281366004611210565b6106cc565b6101966102943660046112ec565b610704565b61014b6102a7366004611108565b6107b9565b61012e6102ba366004611325565b6001600160a01b03918216600090815260056020908152604080832093909416825291909152205460ff1690565b60075461016b906001600160a01b031681565b60006001600160e01b031982166380ac58cd60e01b148061032c57506001600160e01b03198216635b5e139f60e01b145b8061034757506301ffc9a760e01b6001600160e01b03198316145b92915050565b60606000805461035c90611358565b80601f016020809104026020016040519081016040528092919081815260200182805461038890611358565b80156103d55780601f106103aa576101008083540402835291602001916103d5565b820191906000526020600020905b8154815290600101906020018083116103b857829003601f168201915b5050505050905090565b60006103ea8261082d565b506000908152600460205260409020546001600160a01b031690565b6000610411826105c8565b9050806001600160a01b0316836001600160a01b0316036104835760405162461bcd60e51b815260206004820152602160248201527f4552433732313a20617070726f76616c20746f2063757272656e74206f776e656044820152603960f91b60648201526084015b60405180910390fd5b336001600160a01b038216148061049f575061049f81336102ba565b6105115760405162461bcd60e51b815260206004820152603d60248201527f4552433732313a20617070726f76652063616c6c6572206973206e6f7420746f60448201527f6b656e206f776e6572206f7220617070726f76656420666f7220616c6c000000606482015260840161047a565b61051b838361088c565b505050565b61052a33826108fa565b6105465760405162461bcd60e51b815260040161047a90611392565b61051b838383610979565b61051b838383604051806020016040528060008152506106cc565b6007546001600160a01b031633146105bc5760405162461bcd60e51b815260206004820152601360248201527227b7363c9030b236b4b71031b0b710313ab93760691b604482015260640161047a565b6105c581610add565b50565b6000818152600260205260408120546001600160a01b0316806103475760405162461bcd60e51b8152602060048201526018602482015277115490cdcc8c4e881a5b9d985b1a59081d1bdad95b88125160421b604482015260640161047a565b60006001600160a01b0382166106925760405162461bcd60e51b815260206004820152602960248201527f4552433732313a2061646472657373207a65726f206973206e6f7420612076616044820152683634b21037bbb732b960b91b606482015260840161047a565b506001600160a01b031660009081526003602052604090205490565b60606001805461035c90611358565b6106c8338383610b72565b5050565b6106d633836108fa565b6106f25760405162461bcd60e51b815260040161047a90611392565b6106fe84848484610c40565b50505050565b6007546001600160a01b031633146107545760405162461bcd60e51b81526020600482015260136024820152724f6e6c792061646d696e2063616e20626f6f6b60681b604482015260640161047a565b60408051606081018252848152602080820185815282840185815260068054600090815260089094529490922092518355516001830155516002909101555461079e908590610c73565b600680549060006107ae836113df565b919050555050505050565b60606107c48261082d565b60006107db60408051602081019091526000815290565b905060008151116107fb5760405180602001604052806000815250610826565b8061080584610dfe565b604051602001610816929190611406565b6040516020818303038152906040525b9392505050565b6000818152600260205260409020546001600160a01b03166105c55760405162461bcd60e51b8152602060048201526018602482015277115490cdcc8c4e881a5b9d985b1a59081d1bdad95b88125160421b604482015260640161047a565b600081815260046020526040902080546001600160a01b0319166001600160a01b03841690811790915581906108c1826105c8565b6001600160a01b03167f8c5be1e5ebec7d5bd14f71427d1e84f3dd0314c0f7b2291e5b200ac8c7c3b92560405160405180910390a45050565b600080610906836105c8565b9050806001600160a01b0316846001600160a01b0316148061094d57506001600160a01b0380821660009081526005602090815260408083209388168352929052205460ff165b806109715750836001600160a01b0316610966846103df565b6001600160a01b0316145b949350505050565b826001600160a01b031661098c826105c8565b6001600160a01b0316146109b25760405162461bcd60e51b815260040161047a90611435565b6001600160a01b038216610a145760405162461bcd60e51b8152602060048201526024808201527f4552433732313a207472616e7366657220746f20746865207a65726f206164646044820152637265737360e01b606482015260840161047a565b826001600160a01b0316610a27826105c8565b6001600160a01b031614610a4d5760405162461bcd60e51b815260040161047a90611435565b600081815260046020908152604080832080546001600160a01b03199081169091556001600160a01b0387811680865260038552838620805460001901905590871680865283862080546001019055868652600290945282852080549092168417909155905184937fddf252ad1be2c89b69c2b068fc378daa952ba7f163c4a11628f55a4df523b3ef91a4505050565b6000610ae8826105c8565b9050610af3826105c8565b600083815260046020908152604080832080546001600160a01b03199081169091556001600160a01b0385168085526003845282852080546000190190558785526002909352818420805490911690555192935084927fddf252ad1be2c89b69c2b068fc378daa952ba7f163c4a11628f55a4df523b3ef908390a45050565b816001600160a01b0316836001600160a01b031603610bd35760405162461bcd60e51b815260206004820152601960248201527f4552433732313a20617070726f766520746f2063616c6c657200000000000000604482015260640161047a565b6001600160a01b03838116600081815260056020908152604080832094871680845294825291829020805460ff191686151590811790915591519182527f17307eab39ab6107e8899845ad3d59bd9653f200f220920489ca2b5937696c31910160405180910390a3505050565b610c4b848484610979565b610c5784848484610e91565b6106fe5760405162461bcd60e51b815260040161047a9061147a565b6001600160a01b038216610cc95760405162461bcd60e51b815260206004820181905260248201527f4552433732313a206d696e7420746f20746865207a65726f2061646472657373604482015260640161047a565b6000818152600260205260409020546001600160a01b031615610d2e5760405162461bcd60e51b815260206004820152601c60248201527f4552433732313a20746f6b656e20616c7265616479206d696e74656400000000604482015260640161047a565b6000818152600260205260409020546001600160a01b031615610d935760405162461bcd60e51b815260206004820152601c60248201527f4552433732313a20746f6b656e20616c7265616479206d696e74656400000000604482015260640161047a565b6001600160a01b038216600081815260036020908152604080832080546001019055848352600290915280822080546001600160a01b0319168417905551839291907fddf252ad1be2c89b69c2b068fc378daa952ba7f163c4a11628f55a4df523b3ef908290a45050565b60606000610e0b83610f92565b600101905060008167ffffffffffffffff811115610e2b57610e2b6111fa565b6040519080825280601f01601f191660200182016040528015610e55576020820181803683370190505b5090508181016020015b600019016f181899199a1a9b1b9c1cb0b131b232b360811b600a86061a8153600a8504945084610e5f57509392505050565b60006001600160a01b0384163b15610f8757604051630a85bd0160e11b81526001600160a01b0385169063150b7a0290610ed59033908990889088906004016114cc565b6020604051808303816000875af1925050508015610f10575060408051601f3d908101601f19168201909252610f0d91810190611509565b60015b610f6d573d808015610f3e576040519150601f19603f3d011682016040523d82523d6000602084013e610f43565b606091505b508051600003610f655760405162461bcd60e51b815260040161047a9061147a565b805181602001fd5b6001600160e01b031916630a85bd0160e11b149050610971565b506001949350505050565b60008072184f03e93ff9f4daa797ed6e38ed64bf6a1f0160401b8310610fd15772184f03e93ff9f4daa797ed6e38ed64bf6a1f0160401b830492506040015b6d04ee2d6d415b85acef81000000008310610ffd576d04ee2d6d415b85acef8100000000830492506020015b662386f26fc10000831061101b57662386f26fc10000830492506010015b6305f5e1008310611033576305f5e100830492506008015b612710831061104757612710830492506004015b60648310611059576064830492506002015b600a83106103475760010192915050565b6001600160e01b0319811681146105c557600080fd5b60006020828403121561109257600080fd5b81356108268161106a565b60005b838110156110b85781810151838201526020016110a0565b838111156106fe5750506000910152565b600081518084526110e181602086016020860161109d565b601f01601f19169290920160200192915050565b60208152600061082660208301846110c9565b60006020828403121561111a57600080fd5b5035919050565b80356001600160a01b038116811461113857600080fd5b919050565b6000806040838503121561115057600080fd5b61115983611121565b946020939093013593505050565b60008060006060848603121561117c57600080fd5b61118584611121565b925061119360208501611121565b9150604084013590509250925092565b6000602082840312156111b557600080fd5b61082682611121565b600080604083850312156111d157600080fd5b6111da83611121565b9150602083013580151581146111ef57600080fd5b809150509250929050565b634e487b7160e01b600052604160045260246000fd5b6000806000806080858703121561122657600080fd5b61122f85611121565b935061123d60208601611121565b925060408501359150606085013567ffffffffffffffff8082111561126157600080fd5b818701915087601f83011261127557600080fd5b813581811115611287576112876111fa565b604051601f8201601f19908116603f011681019083821181831017156112af576112af6111fa565b816040528281528a60208487010111156112c857600080fd5b82602086016020830137600060208483010152809550505050505092959194509250565b6000806000806080858703121561130257600080fd5b61130b85611121565b966020860135965060408601359560600135945092505050565b6000806040838503121561133857600080fd5b61134183611121565b915061134f60208401611121565b90509250929050565b600181811c9082168061136c57607f821691505b60208210810361138c57634e487b7160e01b600052602260045260246000fd5b50919050565b6020808252602d908201527f4552433732313a2063616c6c6572206973206e6f7420746f6b656e206f776e6560408201526c1c881bdc88185c1c1c9bdd9959609a1b606082015260800190565b6000600182016113ff57634e487b7160e01b600052601160045260246000fd5b5060010190565b6000835161141881846020880161109d565b83519083019061142c81836020880161109d565b01949350505050565b60208082526025908201527f4552433732313a207472616e736665722066726f6d20696e636f72726563742060408201526437bbb732b960d91b606082015260800190565b60208082526032908201527f4552433732313a207472616e7366657220746f206e6f6e20455243373231526560408201527131b2b4bb32b91034b6b83632b6b2b73a32b960711b606082015260800190565b6001600160a01b03858116825284166020820152604081018390526080606082018190526000906114ff908301846110c9565b9695505050505050565b60006020828403121561151b57600080fd5b81516108268161106a56fea26469706673582212201099a8a3bf7e8ddc7af3a242f33dd45a41b506b07afb07ff93f840d12496ec1664736f6c634300080d0033",
  "immutableReferences": {},
  "source": "// SPDX-License-Identifier: MIT\r\npragma solidity >=0.4.22 <0.9.0;\r\n\r\nimport \"@openzeppelin/contracts/token/ERC721/ERC721.sol\";\r\n\r\ncontract RoomBookingNFT is ERC721 {\r\n    uint256 public bookingId;\r\n    address public admin;\r\n\r\n    struct Booking {\r\n        uint256 roomId;\r\n        uint256 startTime;\r\n        uint256 endTime;\r\n    }\r\n\r\n    mapping(uint256 => Booking) public bookings;\r\n\r\n    constructor(address _admin) ERC721(\"RoomBooking\", \"RBNFT\") {\r\n        admin = _admin;\r\n    }\r\n\r\n    function bookRoom(address user, uint256 roomId, uint256 startTime, uint256 endTime) external {\r\n        require(msg.sender == admin, \"Only admin can book\");\r\n        bookings[bookingId] = Booking(roomId, startTime, endTime);\r\n        _mint(user, bookingId);\r\n        bookingId++;\r\n    }\r\n\r\n    function burn(uint256 tokenId) external {\r\n        require(msg.sender == admin, \"Only admin can burn\");\r\n        _burn(tokenId);\r\n    }\r\n}\r\n",
  "sourcePath": "D:\\Hackathon\\Hackhazards_2k25\\smart_campus_toolkit\\contracts\\RoomBookingNFT.sol",
  "compiler": {
    "name": "solc",
    "version": "0.8.13+commit.abaa5c0e.Emscripten.clang"
  },
  "schemaVersion": "3.4.4",
  "updatedAt": "2025-04-15T18:54:46.378Z",
  "devdoc": {
    "kind": "dev",
    "methods": {
      "approve(address,uint256)": {
        "details": "See {IERC721-approve}."
      },
      "balanceOf(address)": {
        "details": "See {IERC721-balanceOf}."
      },
      "getApproved(uint256)": {
        "details": "See {IERC721-getApproved}."
      },
      "isApprovedForAll(address,address)": {
        "details": "See {IERC721-isApprovedForAll}."
      },
      "name()": {
        "details": "See {IERC721Metadata-name}."
      },
      "ownerOf(uint256)": {
        "details": "See {IERC721-ownerOf}."
      },
      "safeTransferFrom(address,address,uint256)": {
        "details": "See {IERC721-safeTransferFrom}."
      },
      "safeTransferFrom(address,address,uint256,bytes)": {
        "details": "See {IERC721-safeTransferFrom}."
      },
      "setApprovalForAll(address,bool)": {
        "details": "See {IERC721-setApprovalForAll}."
      },
      "supportsInterface(bytes4)": {
        "details": "See {IERC165-supportsInterface}."
      },
      "symbol()": {
        "details": "See {IERC721Metadata-symbol}."
      },
      "tokenURI(uint256)": {
        "details": "See {IERC721Metadata-tokenURI}."
      },
      "transferFrom(address,address,uint256)": {
        "details": "See {IERC721-transferFrom}."
      }
    },
    "version": 1
  },
  "userdoc": {
    "kind": "user",
    "methods": {},
    "version": 1
  }
}