{
  "contractName": "CertificateVault",
  "abi": [
    {
      "inputs": [
        {
          "internalType": "address",
          "name": "_admin",
          "type": "address"
        }
      ],
      "stateMutability": "nonpayable",
      "type": "constructor"
    },
    {
      "anonymous": false,
      "inputs": [
        {
          "indexed": true,
          "internalType": "address",
          "name": "owner",
          "type": "address"
        },
        {
          "indexed": true,
          "internalType": "address",
          "name": "approved",
          "type": "address"
        },
        {
          "indexed": true,
          "internalType": "uint256",
          "name": "tokenId",
          "type": "uint256"
        }
      ],
      "name": "Approval",
      "type": "event"
    },
    {
      "anonymous": false,
      "inputs": [
        {
          "indexed": true,
          "internalType": "address",
          "name": "owner",
          "type": "address"
        },
        {
          "indexed": true,
          "internalType": "address",
          "name": "operator",
          "type": "address"
        },
        {
          "indexed": false,
          "internalType": "bool",
          "name": "approved",
          "type": "bool"
        }
      ],
      "name": "ApprovalForAll",
      "type": "event"
    },
    {
      "anonymous": false,
      "inputs": [
        {
          "indexed": true,
          "internalType": "address",
          "name": "from",
          "type": "address"
        },
        {
          "indexed": true,
          "internalType": "address",
          "name": "to",
          "type": "address"
        },
        {
          "indexed": true,
          "internalType": "uint256",
          "name": "tokenId",
          "type": "uint256"
        }
      ],
      "name": "Transfer",
      "type": "event"
    },
    {
      "inputs": [],
      "name": "admin",
      "outputs": [
        {
          "internalType": "address",
          "name": "",
          "type": "address"
        }
      ],
      "stateMutability": "view",
      "type": "function",
      "constant": true
    },
    {
      "inputs": [
        {
          "internalType": "address",
          "name": "to",
          "type": "address"
        },
        {
          "internalType": "uint256",
          "name": "tokenId",
          "type": "uint256"
        }
      ],
      "name": "approve",
      "outputs": [],
      "stateMutability": "nonpayable",
      "type": "function"
    },
    {
      "inputs": [
        {
          "internalType": "address",
          "name": "owner",
          "type": "address"
        }
      ],
      "name": "balanceOf",
      "outputs": [
        {
          "internalType": "uint256",
          "name": "",
          "type": "uint256"
        }
      ],
      "stateMutability": "view",
      "type": "function",
      "constant": true
    },
    {
      "inputs": [],
      "name": "certId",
      "outputs": [
        {
          "internalType": "uint256",
          "name": "",
          "type": "uint256"
        }
      ],
      "stateMutability": "view",
      "type": "function",
      "constant": true
    },
    {
      "inputs": [
        {
          "internalType": "uint256",
          "name": "tokenId",
          "type": "uint256"
        }
      ],
      "name": "getApproved",
      "outputs": [
        {
          "internalType": "address",
          "name": "",
          "type": "address"
        }
      ],
      "stateMutability": "view",
      "type": "function",
      "constant": true
    },
    {
      "inputs": [
        {
          "internalType": "address",
          "name": "owner",
          "type": "address"
        },
        {
          "internalType": "address",
          "name": "operator",
          "type": "address"
        }
      ],
      "name": "isApprovedForAll",
      "outputs": [
        {
          "internalType": "bool",
          "name": "",
          "type": "bool"
        }
      ],
      "stateMutability": "view",
      "type": "function",
      "constant": true
    },
    {
      "inputs": [],
      "name": "name",
      "outputs": [
        {
          "internalType": "string",
          "name": "",
          "type": "string"
        }
      ],
      "stateMutability": "view",
      "type": "function",
      "constant": true
    },
    {
      "inputs": [
        {
          "internalType": "uint256",
          "name": "tokenId",
          "type": "uint256"
        }
      ],
      "name": "ownerOf",
      "outputs": [
        {
          "internalType": "address",
          "name": "",
          "type": "address"
        }
      ],
      "stateMutability": "view",
      "type": "function",
      "constant": true
    },
    {
      "inputs": [
        {
          "internalType": "address",
          "name": "from",
          "type": "address"
        },
        {
          "internalType": "address",
          "name": "to",
          "type": "address"
        },
        {
          "internalType": "uint256",
          "name": "tokenId",
          "type": "uint256"
        }
      ],
      "name": "safeTransferFrom",
      "outputs": [],
      "stateMutability": "nonpayable",
      "type": "function"
    },
    {
      "inputs": [
        {
          "internalType": "address",
          "name": "from",
          "type": "address"
        },
        {
          "internalType": "address",
          "name": "to",
          "type": "address"
        },
        {
          "internalType": "uint256",
          "name": "tokenId",
          "type": "uint256"
        },
        {
          "internalType": "bytes",
          "name": "data",
          "type": "bytes"
        }
      ],
      "name": "safeTransferFrom",
      "outputs": [],
      "stateMutability": "nonpayable",
      "type": "function"
    },
    {
      "inputs": [
        {
          "internalType": "address",
          "name": "operator",
          "type": "address"
        },
        {
          "internalType": "bool",
          "name": "approved",
          "type": "bool"
        }
      ],
      "name": "setApprovalForAll",
      "outputs": [],
      "stateMutability": "nonpayable",
      "type": "function"
    },
    {
      "inputs": [
        {
          "internalType": "bytes4",
          "name": "interfaceId",
          "type": "bytes4"
        }
      ],
      "name": "supportsInterface",
      "outputs": [
        {
          "internalType": "bool",
          "name": "",
          "type": "bool"
        }
      ],
      "stateMutability": "view",
      "type": "function",
      "constant": true
    },
    {
      "inputs": [],
      "name": "symbol",
      "outputs": [
        {
          "internalType": "string",
          "name": "",
          "type": "string"
        }
      ],
      "stateMutability": "view",
      "type": "function",
      "constant": true
    },
    {
      "inputs": [
        {
          "internalType": "uint256",
          "name": "tokenId",
          "type": "uint256"
        }
      ],
      "name": "tokenURI",
      "outputs": [
        {
          "internalType": "string",
          "name": "",
          "type": "string"
        }
      ],
      "stateMutability": "view",
      "type": "function",
      "constant": true
    },
    {
      "inputs": [
        {
          "internalType": "address",
          "name": "from",
          "type": "address"
        },
        {
          "internalType": "address",
          "name": "to",
          "type": "address"
        },
        {
          "internalType": "uint256",
          "name": "tokenId",
          "type": "uint256"
        }
      ],
      "name": "transferFrom",
      "outputs": [],
      "stateMutability": "nonpayable",
      "type": "function"
    },
    {
      "inputs": [
        {
          "internalType": "address",
          "name": "to",
          "type": "address"
        },
        {
          "internalType": "string",
          "name": "certURI",
          "type": "string"
        }
      ],
      "name": "issueCertificate",
      "outputs": [],
      "stateMutability": "nonpayable",
      "type": "function"
    }
  ],
  "bytecode": "0x60806040523480156200001157600080fd5b506040516200182b3803806200182b83398101604081905262000034916200016c565b604080518082018252600e81526d10d95c9d1a599a58d85d1954d09560921b60208083019182528351808501909452600484526310d4d09560e21b9084015281519192916200008691600091620000c6565b5080516200009c906001906020840190620000c6565b5050600780546001600160a01b0319166001600160a01b03939093169290921790915550620001da565b828054620000d4906200019e565b90600052602060002090601f016020900481019282620000f8576000855562000143565b82601f106200011357805160ff191683800117855562000143565b8280016001018555821562000143579182015b828111156200014357825182559160200191906001019062000126565b506200015192915062000155565b5090565b5b8082111562000151576000815560010162000156565b6000602082840312156200017f57600080fd5b81516001600160a01b03811681146200019757600080fd5b9392505050565b600181811c90821680620001b357607f821691505b602082108103620001d457634e487b7160e01b600052602260045260246000fd5b50919050565b61164180620001ea6000396000f3fe608060405234801561001057600080fd5b50600436106101005760003560e01c806395d89b4111610097578063c87b56dd11610066578063c87b56dd1461021d578063de25fc1714610230578063e985e9c514610239578063f851a4401461027557600080fd5b806395d89b41146101dc578063a22cb465146101e4578063b88d4fde146101f7578063bb721aab1461020a57600080fd5b806323b872dd116100d357806323b872dd1461018257806342842e0e146101955780636352211e146101a857806370a08231146101bb57600080fd5b806301ffc9a71461010557806306fdde031461012d578063081812fc14610142578063095ea7b31461016d575b600080fd5b610118610113366004611126565b610288565b60405190151581526020015b60405180910390f35b6101356102da565b604051610124919061119b565b6101556101503660046111ae565b61036c565b6040516001600160a01b039091168152602001610124565b61018061017b3660046111e3565b610393565b005b61018061019036600461120d565b6104ad565b6101806101a336600461120d565b6104de565b6101556101b63660046111ae565b6104f9565b6101ce6101c9366004611249565b610559565b604051908152602001610124565b6101356105df565b6101806101f2366004611264565b6105ee565b61018061020536600461132c565b6105fd565b6101806102183660046113a8565b610635565b61013561022b3660046111ae565b6106af565b6101ce60085481565b61011861024736600461140a565b6001600160a01b03918216600090815260056020908152604080832093909416825291909152205460ff1690565b600754610155906001600160a01b031681565b60006001600160e01b031982166380ac58cd60e01b14806102b957506001600160e01b03198216635b5e139f60e01b145b806102d457506301ffc9a760e01b6001600160e01b03198316145b92915050565b6060600080546102e99061143d565b80601f01602080910402602001604051908101604052809291908181526020018280546103159061143d565b80156103625780601f1061033757610100808354040283529160200191610362565b820191906000526020600020905b81548152906001019060200180831161034557829003601f168201915b5050505050905090565b6000610377826107bf565b506000908152600460205260409020546001600160a01b031690565b600061039e826104f9565b9050806001600160a01b0316836001600160a01b0316036104105760405162461bcd60e51b815260206004820152602160248201527f4552433732313a20617070726f76616c20746f2063757272656e74206f776e656044820152603960f91b60648201526084015b60405180910390fd5b336001600160a01b038216148061042c575061042c8133610247565b61049e5760405162461bcd60e51b815260206004820152603d60248201527f4552433732313a20617070726f76652063616c6c6572206973206e6f7420746f60448201527f6b656e206f776e6572206f7220617070726f76656420666f7220616c6c0000006064820152608401610407565b6104a88383610821565b505050565b6104b7338261088f565b6104d35760405162461bcd60e51b815260040161040790611477565b6104a883838361090d565b6104a8838383604051806020016040528060008152506105fd565b6000818152600260205260408120546001600160a01b0316806102d45760405162461bcd60e51b8152602060048201526018602482015277115490cdcc8c4e881a5b9d985b1a59081d1bdad95b88125160421b6044820152606401610407565b60006001600160a01b0382166105c35760405162461bcd60e51b815260206004820152602960248201527f4552433732313a2061646472657373207a65726f206973206e6f7420612076616044820152683634b21037bbb732b960b91b6064820152608401610407565b506001600160a01b031660009081526003602052604090205490565b6060600180546102e99061143d565b6105f9338383610a71565b5050565b610607338361088f565b6106235760405162461bcd60e51b815260040161040790611477565b61062f84848484610b3f565b50505050565b6007546001600160a01b0316331461067e5760405162461bcd60e51b815260206004820152600c60248201526b155b985d5d1a1bdc9a5e995960a21b6044820152606401610407565b61068a82600854610b72565b61069660085482610cfd565b600880549060006106a6836114c4565b91905055505050565b60606106ba826107bf565b600082815260066020526040812080546106d39061143d565b80601f01602080910402602001604051908101604052809291908181526020018280546106ff9061143d565b801561074c5780601f106107215761010080835404028352916020019161074c565b820191906000526020600020905b81548152906001019060200180831161072f57829003601f168201915b50505050509050600061076a60408051602081019091526000815290565b9050805160000361077c575092915050565b8151156107ae5780826040516020016107969291906114eb565b60405160208183030381529060405292505050919050565b6107b784610d97565b949350505050565b6000818152600260205260409020546001600160a01b031661081e5760405162461bcd60e51b8152602060048201526018602482015277115490cdcc8c4e881a5b9d985b1a59081d1bdad95b88125160421b6044820152606401610407565b50565b600081815260046020526040902080546001600160a01b0319166001600160a01b0384169081179091558190610856826104f9565b6001600160a01b03167f8c5be1e5ebec7d5bd14f71427d1e84f3dd0314c0f7b2291e5b200ac8c7c3b92560405160405180910390a45050565b60008061089b836104f9565b9050806001600160a01b0316846001600160a01b031614806108e257506001600160a01b0380821660009081526005602090815260408083209388168352929052205460ff165b806107b75750836001600160a01b03166108fb8461036c565b6001600160a01b031614949350505050565b826001600160a01b0316610920826104f9565b6001600160a01b0316146109465760405162461bcd60e51b81526004016104079061151a565b6001600160a01b0382166109a85760405162461bcd60e51b8152602060048201526024808201527f4552433732313a207472616e7366657220746f20746865207a65726f206164646044820152637265737360e01b6064820152608401610407565b826001600160a01b03166109bb826104f9565b6001600160a01b0316146109e15760405162461bcd60e51b81526004016104079061151a565b600081815260046020908152604080832080546001600160a01b03199081169091556001600160a01b0387811680865260038552838620805460001901905590871680865283862080546001019055868652600290945282852080549092168417909155905184937fddf252ad1be2c89b69c2b068fc378daa952ba7f163c4a11628f55a4df523b3ef91a4505050565b816001600160a01b0316836001600160a01b031603610ad25760405162461bcd60e51b815260206004820152601960248201527f4552433732313a20617070726f766520746f2063616c6c6572000000000000006044820152606401610407565b6001600160a01b03838116600081815260056020908152604080832094871680845294825291829020805460ff191686151590811790915591519182527f17307eab39ab6107e8899845ad3d59bd9653f200f220920489ca2b5937696c31910160405180910390a3505050565b610b4a84848461090d565b610b5684848484610e0b565b61062f5760405162461bcd60e51b81526004016104079061155f565b6001600160a01b038216610bc85760405162461bcd60e51b815260206004820181905260248201527f4552433732313a206d696e7420746f20746865207a65726f20616464726573736044820152606401610407565b6000818152600260205260409020546001600160a01b031615610c2d5760405162461bcd60e51b815260206004820152601c60248201527f4552433732313a20746f6b656e20616c7265616479206d696e746564000000006044820152606401610407565b6000818152600260205260409020546001600160a01b031615610c925760405162461bcd60e51b815260206004820152601c60248201527f4552433732313a20746f6b656e20616c7265616479206d696e746564000000006044820152606401610407565b6001600160a01b038216600081815260036020908152604080832080546001019055848352600290915280822080546001600160a01b0319168417905551839291907fddf252ad1be2c89b69c2b068fc378daa952ba7f163c4a11628f55a4df523b3ef908290a45050565b6000828152600260205260409020546001600160a01b0316610d785760405162461bcd60e51b815260206004820152602e60248201527f45524337323155524953746f726167653a2055524920736574206f66206e6f6e60448201526d32bc34b9ba32b73a103a37b5b2b760911b6064820152608401610407565b600082815260066020908152604090912082516104a892840190611077565b6060610da2826107bf565b6000610db960408051602081019091526000815290565b90506000815111610dd95760405180602001604052806000815250610e04565b80610de384610f0c565b604051602001610df49291906114eb565b6040516020818303038152906040525b9392505050565b60006001600160a01b0384163b15610f0157604051630a85bd0160e11b81526001600160a01b0385169063150b7a0290610e4f9033908990889088906004016115b1565b6020604051808303816000875af1925050508015610e8a575060408051601f3d908101601f19168201909252610e87918101906115ee565b60015b610ee7573d808015610eb8576040519150601f19603f3d011682016040523d82523d6000602084013e610ebd565b606091505b508051600003610edf5760405162461bcd60e51b81526004016104079061155f565b805181602001fd5b6001600160e01b031916630a85bd0160e11b1490506107b7565b506001949350505050565b60606000610f1983610f9f565b600101905060008167ffffffffffffffff811115610f3957610f396112a0565b6040519080825280601f01601f191660200182016040528015610f63576020820181803683370190505b5090508181016020015b600019016f181899199a1a9b1b9c1cb0b131b232b360811b600a86061a8153600a8504945084610f6d57509392505050565b60008072184f03e93ff9f4daa797ed6e38ed64bf6a1f0160401b8310610fde5772184f03e93ff9f4daa797ed6e38ed64bf6a1f0160401b830492506040015b6d04ee2d6d415b85acef8100000000831061100a576d04ee2d6d415b85acef8100000000830492506020015b662386f26fc10000831061102857662386f26fc10000830492506010015b6305f5e1008310611040576305f5e100830492506008015b612710831061105457612710830492506004015b60648310611066576064830492506002015b600a83106102d45760010192915050565b8280546110839061143d565b90600052602060002090601f0160209004810192826110a557600085556110eb565b82601f106110be57805160ff19168380011785556110eb565b828001600101855582156110eb579182015b828111156110eb5782518255916020019190600101906110d0565b506110f79291506110fb565b5090565b5b808211156110f757600081556001016110fc565b6001600160e01b03198116811461081e57600080fd5b60006020828403121561113857600080fd5b8135610e0481611110565b60005b8381101561115e578181015183820152602001611146565b8381111561062f5750506000910152565b60008151808452611187816020860160208601611143565b601f01601f19169290920160200192915050565b602081526000610e04602083018461116f565b6000602082840312156111c057600080fd5b5035919050565b80356001600160a01b03811681146111de57600080fd5b919050565b600080604083850312156111f657600080fd5b6111ff836111c7565b946020939093013593505050565b60008060006060848603121561122257600080fd5b61122b846111c7565b9250611239602085016111c7565b9150604084013590509250925092565b60006020828403121561125b57600080fd5b610e04826111c7565b6000806040838503121561127757600080fd5b611280836111c7565b91506020830135801515811461129557600080fd5b809150509250929050565b634e487b7160e01b600052604160045260246000fd5b600067ffffffffffffffff808411156112d1576112d16112a0565b604051601f8501601f19908116603f011681019082821181831017156112f9576112f96112a0565b8160405280935085815286868601111561131257600080fd5b858560208301376000602087830101525050509392505050565b6000806000806080858703121561134257600080fd5b61134b856111c7565b9350611359602086016111c7565b925060408501359150606085013567ffffffffffffffff81111561137c57600080fd5b8501601f8101871361138d57600080fd5b61139c878235602084016112b6565b91505092959194509250565b600080604083850312156113bb57600080fd5b6113c4836111c7565b9150602083013567ffffffffffffffff8111156113e057600080fd5b8301601f810185136113f157600080fd5b611400858235602084016112b6565b9150509250929050565b6000806040838503121561141d57600080fd5b611426836111c7565b9150611434602084016111c7565b90509250929050565b600181811c9082168061145157607f821691505b60208210810361147157634e487b7160e01b600052602260045260246000fd5b50919050565b6020808252602d908201527f4552433732313a2063616c6c6572206973206e6f7420746f6b656e206f776e6560408201526c1c881bdc88185c1c1c9bdd9959609a1b606082015260800190565b6000600182016114e457634e487b7160e01b600052601160045260246000fd5b5060010190565b600083516114fd818460208801611143565b835190830190611511818360208801611143565b01949350505050565b60208082526025908201527f4552433732313a207472616e736665722066726f6d20696e636f72726563742060408201526437bbb732b960d91b606082015260800190565b60208082526032908201527f4552433732313a207472616e7366657220746f206e6f6e20455243373231526560408201527131b2b4bb32b91034b6b83632b6b2b73a32b960711b606082015260800190565b6001600160a01b03858116825284166020820152604081018390526080606082018190526000906115e49083018461116f565b9695505050505050565b60006020828403121561160057600080fd5b8151610e048161111056fea26469706673582212208d8467e9cdc28564cd41ef1ea8a167d98f68d48589d39288deb30735b37be2d864736f6c634300080d0033",
  "immutableReferences": {},
  "source": "// SPDX-License-Identifier: MIT\r\npragma solidity >=0.4.22 <0.9.0;\r\n\r\nimport \"@openzeppelin/contracts/token/ERC721/extensions/ERC721URIStorage.sol\";\r\n\r\ncontract CertificateVault is ERC721URIStorage {\r\n    address public admin;\r\n    uint256 public certId;\r\n\r\n    constructor(address _admin) ERC721(\"CertificateSBT\", \"CSBT\") {\r\n        admin = _admin;\r\n    }\r\n\r\n    function issueCertificate(address to, string memory certURI) external {\r\n        require(msg.sender == admin, \"Unauthorized\");\r\n        _mint(to, certId);\r\n        _setTokenURI(certId, certURI);\r\n        certId++;\r\n    }\r\n\r\n    function _beforeTokenTransfer(address from, address to, uint256 /*tokenId*/) internal pure {\r\n        require(from == address(0) || to == address(0), \"Soulbound: non-transferable\");\r\n    }\r\n}\r\n",
  "sourcePath": "D:\\Hackathon\\Hackhazards_2k25\\smart_campus_toolkit\\contracts\\CertificateVault.sol",
  "compiler": {
    "name": "solc",
    "version": "0.8.13+commit.abaa5c0e.Emscripten.clang"
  },
  "schemaVersion": "3.4.4",
  "updatedAt": "2025-04-16T05:46:55.355Z",
  "networkType": "ethereum",
  "devdoc": {
    "kind": "dev",
    "methods": {
      "approve(address,uint256)": {
        "details": "See {IERC721-approve}."
      },
      "balanceOf(address)": {
        "details": "See {IERC721-balanceOf}."
      },
      "getApproved(uint256)": {
        "details": "See {IERC721-getApproved}."
      },
      "isApprovedForAll(address,address)": {
        "details": "See {IERC721-isApprovedForAll}."
      },
      "name()": {
        "details": "See {IERC721Metadata-name}."
      },
      "ownerOf(uint256)": {
        "details": "See {IERC721-ownerOf}."
      },
      "safeTransferFrom(address,address,uint256)": {
        "details": "See {IERC721-safeTransferFrom}."
      },
      "safeTransferFrom(address,address,uint256,bytes)": {
        "details": "See {IERC721-safeTransferFrom}."
      },
      "setApprovalForAll(address,bool)": {
        "details": "See {IERC721-setApprovalForAll}."
      },
      "supportsInterface(bytes4)": {
        "details": "See {IERC165-supportsInterface}."
      },
      "symbol()": {
        "details": "See {IERC721Metadata-symbol}."
      },
      "tokenURI(uint256)": {
        "details": "See {IERC721Metadata-tokenURI}."
      },
      "transferFrom(address,address,uint256)": {
        "details": "See {IERC721-transferFrom}."
      }
    },
    "version": 1
  },
  "userdoc": {
    "kind": "user",
    "methods": {},
    "version": 1
  }
}