{
  "contractName": "FeedbackCollector",
  "abi": [
    {
      "inputs": [
        {
          "internalType": "uint256",
          "name": "",
          "type": "uint256"
        }
      ],
      "name": "feedbacks",
      "outputs": [
        {
          "internalType": "bytes32",
          "name": "hashedFeedback",
          "type": "bytes32"
        },
        {
          "internalType": "uint256",
          "name": "timestamp",
          "type": "uint256"
        }
      ],
      "stateMutability": "view",
      "type": "function",
      "constant": true
    },
    {
      "inputs": [
        {
          "internalType": "string",
          "name": "feedback",
          "type": "string"
        }
      ],
      "name": "submitFeedback",
      "outputs": [],
      "stateMutability": "nonpayable",
      "type": "function"
    },
    {
      "inputs": [],
      "name": "getFeedbackCount",
      "outputs": [
        {
          "internalType": "uint256",
          "name": "",
          "type": "uint256"
        }
      ],
      "stateMutability": "view",
      "type": "function",
      "constant": true
    }
  ],
  "bytecode": "0x608060405234801561001057600080fd5b506102dd806100206000396000f3fe608060405234801561001057600080fd5b50600436106100415760003560e01c80632bb8b0dc1461004657806338c5c86b14610073578063e341a62314610084575b600080fd5b610059610054366004610169565b610099565b604080519283526020830191909152015b60405180910390f35b60005460405190815260200161006a565b610097610092366004610198565b6100c7565b005b600081815481106100a957600080fd5b60009182526020909120600290910201805460019091015490915082565b60008133426040516020016100de93929190610249565b60408051808303601f190181528282528051602091820120838301909252908252429082019081526000805460018101825590805291517f290decd9548b62a8d60345a988386fc84ba6bc95484008f6362f93160ef3e563600290930292830155517f290decd9548b62a8d60345a988386fc84ba6bc95484008f6362f93160ef3e564909101555050565b60006020828403121561017b57600080fd5b5035919050565b634e487b7160e01b600052604160045260246000fd5b6000602082840312156101aa57600080fd5b813567ffffffffffffffff808211156101c257600080fd5b818401915084601f8301126101d657600080fd5b8135818111156101e8576101e8610182565b604051601f8201601f19908116603f0116810190838211818310171561021057610210610182565b8160405282815287602084870101111561022957600080fd5b826020860160208301376000928101602001929092525095945050505050565b6000845160005b8181101561026a5760208188018101518583015201610250565b81811115610279576000828501525b5060609490941b6bffffffffffffffffffffffff19169190930190815260148101919091526034019291505056fea264697066735822122020f93cd3f1c1ef4c93f0a0bf65c0b4b2b35a5b72bbca0c4efaad6835032e6ec364736f6c634300080d0033",
  "immutableReferences": {},
  "source": "// SPDX-License-Identifier: MIT\r\npragma solidity >=0.4.22 <0.9.0;\r\n\r\ncontract FeedbackCollector {\r\n    struct Feedback {\r\n        bytes32 hashedFeedback;\r\n        uint256 timestamp;\r\n    }\r\n\r\n    Feedback[] public feedbacks;\r\n\r\n    function submitFeedback(string memory feedback) external {\r\n        bytes32 hash = keccak256(abi.encodePacked(feedback, msg.sender, block.timestamp));\r\n        feedbacks.push(Feedback(hash, block.timestamp));\r\n    }\r\n\r\n    function getFeedbackCount() external view returns (uint256) {\r\n        return feedbacks.length;\r\n    }\r\n}\r\n",
  "sourcePath": "D:\\Hackathon\\Hackhazards_2k25\\smart_campus_toolkit\\contracts\\FeedbackCollector.sol",
  "compiler": {
    "name": "solc",
    "version": "0.8.13+commit.abaa5c0e.Emscripten.clang"
  },
  "schemaVersion": "3.4.4",
  "updatedAt": "2025-04-16T05:46:57.620Z",
  "networkType": "ethereum",
  "devdoc": {
    "kind": "dev",
    "methods": {},
    "version": 1
  },
  "userdoc": {
    "kind": "user",
    "methods": {},
    "version": 1
  }
}