{
  "contractName": "FeeReceiptSBT",
  "abi": [
    {
      "inputs": [
        {
          "internalType": "address",
          "name": "_admin",
          "type": "address"
        }
      ],
      "stateMutability": "nonpayable",
      "type": "constructor"
    },
    {
      "anonymous": false,
      "inputs": [
        {
          "indexed": true,
          "internalType": "address",
          "name": "owner",
          "type": "address"
        },
        {
          "indexed": true,
          "internalType": "address",
          "name": "approved",
          "type": "address"
        },
        {
          "indexed": true,
          "internalType": "uint256",
          "name": "tokenId",
          "type": "uint256"
        }
      ],
      "name": "Approval",
      "type": "event"
    },
    {
      "anonymous": false,
      "inputs": [
        {
          "indexed": true,
          "internalType": "address",
          "name": "owner",
          "type": "address"
        },
        {
          "indexed": true,
          "internalType": "address",
          "name": "operator",
          "type": "address"
        },
        {
          "indexed": false,
          "internalType": "bool",
          "name": "approved",
          "type": "bool"
        }
      ],
      "name": "ApprovalForAll",
      "type": "event"
    },
    {
      "anonymous": false,
      "inputs": [
        {
          "indexed": true,
          "internalType": "address",
          "name": "from",
          "type": "address"
        },
        {
          "indexed": true,
          "internalType": "address",
          "name": "to",
          "type": "address"
        },
        {
          "indexed": true,
          "internalType": "uint256",
          "name": "tokenId",
          "type": "uint256"
        }
      ],
      "name": "Transfer",
      "type": "event"
    },
    {
      "inputs": [],
      "name": "admin",
      "outputs": [
        {
          "internalType": "address",
          "name": "",
          "type": "address"
        }
      ],
      "stateMutability": "view",
      "type": "function",
      "constant": true
    },
    {
      "inputs": [
        {
          "internalType": "address",
          "name": "to",
          "type": "address"
        },
        {
          "internalType": "uint256",
          "name": "tokenId",
          "type": "uint256"
        }
      ],
      "name": "approve",
      "outputs": [],
      "stateMutability": "nonpayable",
      "type": "function"
    },
    {
      "inputs": [
        {
          "internalType": "address",
          "name": "owner",
          "type": "address"
        }
      ],
      "name": "balanceOf",
      "outputs": [
        {
          "internalType": "uint256",
          "name": "",
          "type": "uint256"
        }
      ],
      "stateMutability": "view",
      "type": "function",
      "constant": true
    },
    {
      "inputs": [
        {
          "internalType": "uint256",
          "name": "tokenId",
          "type": "uint256"
        }
      ],
      "name": "getApproved",
      "outputs": [
        {
          "internalType": "address",
          "name": "",
          "type": "address"
        }
      ],
      "stateMutability": "view",
      "type": "function",
      "constant": true
    },
    {
      "inputs": [
        {
          "internalType": "address",
          "name": "owner",
          "type": "address"
        },
        {
          "internalType": "address",
          "name": "operator",
          "type": "address"
        }
      ],
      "name": "isApprovedForAll",
      "outputs": [
        {
          "internalType": "bool",
          "name": "",
          "type": "bool"
        }
      ],
      "stateMutability": "view",
      "type": "function",
      "constant": true
    },
    {
      "inputs": [],
      "name": "name",
      "outputs": [
        {
          "internalType": "string",
          "name": "",
          "type": "string"
        }
      ],
      "stateMutability": "view",
      "type": "function",
      "constant": true
    },
    {
      "inputs": [
        {
          "internalType": "uint256",
          "name": "tokenId",
          "type": "uint256"
        }
      ],
      "name": "ownerOf",
      "outputs": [
        {
          "internalType": "address",
          "name": "",
          "type": "address"
        }
      ],
      "stateMutability": "view",
      "type": "function",
      "constant": true
    },
    {
      "inputs": [],
      "name": "receiptId",
      "outputs": [
        {
          "internalType": "uint256",
          "name": "",
          "type": "uint256"
        }
      ],
      "stateMutability": "view",
      "type": "function",
      "constant": true
    },
    {
      "inputs": [
        {
          "internalType": "address",
          "name": "from",
          "type": "address"
        },
        {
          "internalType": "address",
          "name": "to",
          "type": "address"
        },
        {
          "internalType": "uint256",
          "name": "tokenId",
          "type": "uint256"
        }
      ],
      "name": "safeTransferFrom",
      "outputs": [],
      "stateMutability": "nonpayable",
      "type": "function"
    },
    {
      "inputs": [
        {
          "internalType": "address",
          "name": "from",
          "type": "address"
        },
        {
          "internalType": "address",
          "name": "to",
          "type": "address"
        },
        {
          "internalType": "uint256",
          "name": "tokenId",
          "type": "uint256"
        },
        {
          "internalType": "bytes",
          "name": "data",
          "type": "bytes"
        }
      ],
      "name": "safeTransferFrom",
      "outputs": [],
      "stateMutability": "nonpayable",
      "type": "function"
    },
    {
      "inputs": [
        {
          "internalType": "address",
          "name": "operator",
          "type": "address"
        },
        {
          "internalType": "bool",
          "name": "approved",
          "type": "bool"
        }
      ],
      "name": "setApprovalForAll",
      "outputs": [],
      "stateMutability": "nonpayable",
      "type": "function"
    },
    {
      "inputs": [
        {
          "internalType": "bytes4",
          "name": "interfaceId",
          "type": "bytes4"
        }
      ],
      "name": "supportsInterface",
      "outputs": [
        {
          "internalType": "bool",
          "name": "",
          "type": "bool"
        }
      ],
      "stateMutability": "view",
      "type": "function",
      "constant": true
    },
    {
      "inputs": [],
      "name": "symbol",
      "outputs": [
        {
          "internalType": "string",
          "name": "",
          "type": "string"
        }
      ],
      "stateMutability": "view",
      "type": "function",
      "constant": true
    },
    {
      "inputs": [
        {
          "internalType": "uint256",
          "name": "tokenId",
          "type": "uint256"
        }
      ],
      "name": "tokenURI",
      "outputs": [
        {
          "internalType": "string",
          "name": "",
          "type": "string"
        }
      ],
      "stateMutability": "view",
      "type": "function",
      "constant": true
    },
    {
      "inputs": [
        {
          "internalType": "address",
          "name": "from",
          "type": "address"
        },
        {
          "internalType": "address",
          "name": "to",
          "type": "address"
        },
        {
          "internalType": "uint256",
          "name": "tokenId",
          "type": "uint256"
        }
      ],
      "name": "transferFrom",
      "outputs": [],
      "stateMutability": "nonpayable",
      "type": "function"
    },
    {
      "inputs": [
        {
          "internalType": "address",
          "name": "student",
          "type": "address"
        },
        {
          "internalType": "string",
          "name": "receiptURI",
          "type": "string"
        }
      ],
      "name": "issueReceipt",
      "outputs": [],
      "stateMutability": "nonpayable",
      "type": "function"
    }
  ],
  "bytecode": "0x60806040523480156200001157600080fd5b506040516200182638038062001826833981016040819052620000349162000169565b604080518082018252600a815269119959549958d95a5c1d60b21b602080830191825283518085019094526005845264119494d09560da1b9084015281519192916200008391600091620000c3565b50805162000099906001906020840190620000c3565b5050600880546001600160a01b0319166001600160a01b03939093169290921790915550620001d7565b828054620000d1906200019b565b90600052602060002090601f016020900481019282620000f5576000855562000140565b82601f106200011057805160ff191683800117855562000140565b8280016001018555821562000140579182015b828111156200014057825182559160200191906001019062000123565b506200014e92915062000152565b5090565b5b808211156200014e576000815560010162000153565b6000602082840312156200017c57600080fd5b81516001600160a01b03811681146200019457600080fd5b9392505050565b600181811c90821680620001b057607f821691505b602082108103620001d157634e487b7160e01b600052602260045260246000fd5b50919050565b61163f80620001e76000396000f3fe608060405234801561001057600080fd5b50600436106101005760003560e01c806370a0823111610097578063c87b56dd11610066578063c87b56dd14610213578063e985e9c514610226578063f0d65a8914610262578063f851a4401461027557600080fd5b806370a08231146101d257806395d89b41146101e5578063a22cb465146101ed578063b88d4fde1461020057600080fd5b80631775ec84116100d35780631775ec841461018257806323b872dd1461019957806342842e0e146101ac5780636352211e146101bf57600080fd5b806301ffc9a71461010557806306fdde031461012d578063081812fc14610142578063095ea7b31461016d575b600080fd5b610118610113366004611124565b610288565b60405190151581526020015b60405180910390f35b6101356102da565b6040516101249190611199565b6101556101503660046111ac565b61036c565b6040516001600160a01b039091168152602001610124565b61018061017b3660046111e1565b610393565b005b61018b60075481565b604051908152602001610124565b6101806101a736600461120b565b6104ad565b6101806101ba36600461120b565b6104de565b6101556101cd3660046111ac565b6104f9565b61018b6101e0366004611247565b610559565b6101356105df565b6101806101fb366004611262565b6105ee565b61018061020e36600461132a565b6105fd565b6101356102213660046111ac565b610635565b6101186102343660046113a6565b6001600160a01b03918216600090815260056020908152604080832093909416825291909152205460ff1690565b6101806102703660046113d9565b610745565b600854610155906001600160a01b031681565b60006001600160e01b031982166380ac58cd60e01b14806102b957506001600160e01b03198216635b5e139f60e01b145b806102d457506301ffc9a760e01b6001600160e01b03198316145b92915050565b6060600080546102e99061143b565b80601f01602080910402602001604051908101604052809291908181526020018280546103159061143b565b80156103625780601f1061033757610100808354040283529160200191610362565b820191906000526020600020905b81548152906001019060200180831161034557829003601f168201915b5050505050905090565b6000610377826107bd565b506000908152600460205260409020546001600160a01b031690565b600061039e826104f9565b9050806001600160a01b0316836001600160a01b0316036104105760405162461bcd60e51b815260206004820152602160248201527f4552433732313a20617070726f76616c20746f2063757272656e74206f776e656044820152603960f91b60648201526084015b60405180910390fd5b336001600160a01b038216148061042c575061042c8133610234565b61049e5760405162461bcd60e51b815260206004820152603d60248201527f4552433732313a20617070726f76652063616c6c6572206973206e6f7420746f60448201527f6b656e206f776e6572206f7220617070726f76656420666f7220616c6c0000006064820152608401610407565b6104a8838361081f565b505050565b6104b7338261088d565b6104d35760405162461bcd60e51b815260040161040790611475565b6104a883838361090b565b6104a8838383604051806020016040528060008152506105fd565b6000818152600260205260408120546001600160a01b0316806102d45760405162461bcd60e51b8152602060048201526018602482015277115490cdcc8c4e881a5b9d985b1a59081d1bdad95b88125160421b6044820152606401610407565b60006001600160a01b0382166105c35760405162461bcd60e51b815260206004820152602960248201527f4552433732313a2061646472657373207a65726f206973206e6f7420612076616044820152683634b21037bbb732b960b91b6064820152608401610407565b506001600160a01b031660009081526003602052604090205490565b6060600180546102e99061143b565b6105f9338383610a6f565b5050565b610607338361088d565b6106235760405162461bcd60e51b815260040161040790611475565b61062f84848484610b3d565b50505050565b6060610640826107bd565b600082815260066020526040812080546106599061143b565b80601f01602080910402602001604051908101604052809291908181526020018280546106859061143b565b80156106d25780601f106106a7576101008083540402835291602001916106d2565b820191906000526020600020905b8154815290600101906020018083116106b557829003601f168201915b5050505050905060006106f060408051602081019091526000815290565b90508051600003610702575092915050565b81511561073457808260405160200161071c9291906114c2565b60405160208183030381529060405292505050919050565b61073d84610b70565b949350505050565b6008546001600160a01b0316331461078c5760405162461bcd60e51b815260206004820152600a60248201526927b7363c9030b236b4b760b11b6044820152606401610407565b61079882600754610be4565b6107a460075482610d6f565b600780549060006107b4836114f1565b91905055505050565b6000818152600260205260409020546001600160a01b031661081c5760405162461bcd60e51b8152602060048201526018602482015277115490cdcc8c4e881a5b9d985b1a59081d1bdad95b88125160421b6044820152606401610407565b50565b600081815260046020526040902080546001600160a01b0319166001600160a01b0384169081179091558190610854826104f9565b6001600160a01b03167f8c5be1e5ebec7d5bd14f71427d1e84f3dd0314c0f7b2291e5b200ac8c7c3b92560405160405180910390a45050565b600080610899836104f9565b9050806001600160a01b0316846001600160a01b031614806108e057506001600160a01b0380821660009081526005602090815260408083209388168352929052205460ff165b8061073d5750836001600160a01b03166108f98461036c565b6001600160a01b031614949350505050565b826001600160a01b031661091e826104f9565b6001600160a01b0316146109445760405162461bcd60e51b815260040161040790611518565b6001600160a01b0382166109a65760405162461bcd60e51b8152602060048201526024808201527f4552433732313a207472616e7366657220746f20746865207a65726f206164646044820152637265737360e01b6064820152608401610407565b826001600160a01b03166109b9826104f9565b6001600160a01b0316146109df5760405162461bcd60e51b815260040161040790611518565b600081815260046020908152604080832080546001600160a01b03199081169091556001600160a01b0387811680865260038552838620805460001901905590871680865283862080546001019055868652600290945282852080549092168417909155905184937fddf252ad1be2c89b69c2b068fc378daa952ba7f163c4a11628f55a4df523b3ef91a4505050565b816001600160a01b0316836001600160a01b031603610ad05760405162461bcd60e51b815260206004820152601960248201527f4552433732313a20617070726f766520746f2063616c6c6572000000000000006044820152606401610407565b6001600160a01b03838116600081815260056020908152604080832094871680845294825291829020805460ff191686151590811790915591519182527f17307eab39ab6107e8899845ad3d59bd9653f200f220920489ca2b5937696c31910160405180910390a3505050565b610b4884848461090b565b610b5484848484610e09565b61062f5760405162461bcd60e51b81526004016104079061155d565b6060610b7b826107bd565b6000610b9260408051602081019091526000815290565b90506000815111610bb25760405180602001604052806000815250610bdd565b80610bbc84610f0a565b604051602001610bcd9291906114c2565b6040516020818303038152906040525b9392505050565b6001600160a01b038216610c3a5760405162461bcd60e51b815260206004820181905260248201527f4552433732313a206d696e7420746f20746865207a65726f20616464726573736044820152606401610407565b6000818152600260205260409020546001600160a01b031615610c9f5760405162461bcd60e51b815260206004820152601c60248201527f4552433732313a20746f6b656e20616c7265616479206d696e746564000000006044820152606401610407565b6000818152600260205260409020546001600160a01b031615610d045760405162461bcd60e51b815260206004820152601c60248201527f4552433732313a20746f6b656e20616c7265616479206d696e746564000000006044820152606401610407565b6001600160a01b038216600081815260036020908152604080832080546001019055848352600290915280822080546001600160a01b0319168417905551839291907fddf252ad1be2c89b69c2b068fc378daa952ba7f163c4a11628f55a4df523b3ef908290a45050565b6000828152600260205260409020546001600160a01b0316610dea5760405162461bcd60e51b815260206004820152602e60248201527f45524337323155524953746f726167653a2055524920736574206f66206e6f6e60448201526d32bc34b9ba32b73a103a37b5b2b760911b6064820152608401610407565b600082815260066020908152604090912082516104a892840190611075565b60006001600160a01b0384163b15610eff57604051630a85bd0160e11b81526001600160a01b0385169063150b7a0290610e4d9033908990889088906004016115af565b6020604051808303816000875af1925050508015610e88575060408051601f3d908101601f19168201909252610e85918101906115ec565b60015b610ee5573d808015610eb6576040519150601f19603f3d011682016040523d82523d6000602084013e610ebb565b606091505b508051600003610edd5760405162461bcd60e51b81526004016104079061155d565b805181602001fd5b6001600160e01b031916630a85bd0160e11b14905061073d565b506001949350505050565b60606000610f1783610f9d565b600101905060008167ffffffffffffffff811115610f3757610f3761129e565b6040519080825280601f01601f191660200182016040528015610f61576020820181803683370190505b5090508181016020015b600019016f181899199a1a9b1b9c1cb0b131b232b360811b600a86061a8153600a8504945084610f6b57509392505050565b60008072184f03e93ff9f4daa797ed6e38ed64bf6a1f0160401b8310610fdc5772184f03e93ff9f4daa797ed6e38ed64bf6a1f0160401b830492506040015b6d04ee2d6d415b85acef81000000008310611008576d04ee2d6d415b85acef8100000000830492506020015b662386f26fc10000831061102657662386f26fc10000830492506010015b6305f5e100831061103e576305f5e100830492506008015b612710831061105257612710830492506004015b60648310611064576064830492506002015b600a83106102d45760010192915050565b8280546110819061143b565b90600052602060002090601f0160209004810192826110a357600085556110e9565b82601f106110bc57805160ff19168380011785556110e9565b828001600101855582156110e9579182015b828111156110e95782518255916020019190600101906110ce565b506110f59291506110f9565b5090565b5b808211156110f557600081556001016110fa565b6001600160e01b03198116811461081c57600080fd5b60006020828403121561113657600080fd5b8135610bdd8161110e565b60005b8381101561115c578181015183820152602001611144565b8381111561062f5750506000910152565b60008151808452611185816020860160208601611141565b601f01601f19169290920160200192915050565b602081526000610bdd602083018461116d565b6000602082840312156111be57600080fd5b5035919050565b80356001600160a01b03811681146111dc57600080fd5b919050565b600080604083850312156111f457600080fd5b6111fd836111c5565b946020939093013593505050565b60008060006060848603121561122057600080fd5b611229846111c5565b9250611237602085016111c5565b9150604084013590509250925092565b60006020828403121561125957600080fd5b610bdd826111c5565b6000806040838503121561127557600080fd5b61127e836111c5565b91506020830135801515811461129357600080fd5b809150509250929050565b634e487b7160e01b600052604160045260246000fd5b600067ffffffffffffffff808411156112cf576112cf61129e565b604051601f8501601f19908116603f011681019082821181831017156112f7576112f761129e565b8160405280935085815286868601111561131057600080fd5b858560208301376000602087830101525050509392505050565b6000806000806080858703121561134057600080fd5b611349856111c5565b9350611357602086016111c5565b925060408501359150606085013567ffffffffffffffff81111561137a57600080fd5b8501601f8101871361138b57600080fd5b61139a878235602084016112b4565b91505092959194509250565b600080604083850312156113b957600080fd5b6113c2836111c5565b91506113d0602084016111c5565b90509250929050565b600080604083850312156113ec57600080fd5b6113f5836111c5565b9150602083013567ffffffffffffffff81111561141157600080fd5b8301601f8101851361142257600080fd5b611431858235602084016112b4565b9150509250929050565b600181811c9082168061144f57607f821691505b60208210810361146f57634e487b7160e01b600052602260045260246000fd5b50919050565b6020808252602d908201527f4552433732313a2063616c6c6572206973206e6f7420746f6b656e206f776e6560408201526c1c881bdc88185c1c1c9bdd9959609a1b606082015260800190565b600083516114d4818460208801611141565b8351908301906114e8818360208801611141565b01949350505050565b60006001820161151157634e487b7160e01b600052601160045260246000fd5b5060010190565b60208082526025908201527f4552433732313a207472616e736665722066726f6d20696e636f72726563742060408201526437bbb732b960d91b606082015260800190565b60208082526032908201527f4552433732313a207472616e7366657220746f206e6f6e20455243373231526560408201527131b2b4bb32b91034b6b83632b6b2b73a32b960711b606082015260800190565b6001600160a01b03858116825284166020820152604081018390526080606082018190526000906115e29083018461116d565b9695505050505050565b6000602082840312156115fe57600080fd5b8151610bdd8161110e56fea2646970667358221220c9cdb9534108b929f09fc1eff258f1065a2cf7f9890637f9a8d6f7ce366f7fb164736f6c634300080d0033",
  "immutableReferences": {},
  "source": "// SPDX-License-Identifier: MIT\r\npragma solidity >=0.4.22 <0.9.0;\r\n\r\nimport \"@openzeppelin/contracts/token/ERC721/extensions/ERC721URIStorage.sol\";\r\n\r\ncontract FeeReceiptSBT is ERC721URIStorage {\r\n    uint256 public receiptId;\r\n    address public admin;\r\n\r\n    constructor(address _admin) ERC721(\"FeeReceipt\", \"FRSBT\") {\r\n        admin = _admin;\r\n    }\r\n\r\n    function issueReceipt(address student, string memory receiptURI) public {\r\n        require(msg.sender == admin, \"Only admin\");\r\n        _mint(student, receiptId);\r\n        _setTokenURI(receiptId, receiptURI);\r\n        receiptId++;\r\n    }\r\n\r\n    function _beforeTokenTransfer(address /*from*/, address /*to*/, uint256 /*tokenId*/) internal pure {\r\n        require(true, \"Soulbound: non-transferable\");\r\n    }\r\n}\r\n",
  "sourcePath": "D:\\Hackathon\\Hackhazards_2k25\\smart_campus_toolkit\\contracts\\FeeReceiptSBT.sol",
  "compiler": {
    "name": "solc",
    "version": "0.8.13+commit.abaa5c0e.Emscripten.clang"
  },
  "schemaVersion": "3.4.4",
  "updatedAt": "2025-04-16T05:46:56.331Z",
  "networkType": "ethereum",
  "devdoc": {
    "kind": "dev",
    "methods": {
      "approve(address,uint256)": {
        "details": "See {IERC721-approve}."
      },
      "balanceOf(address)": {
        "details": "See {IERC721-balanceOf}."
      },
      "getApproved(uint256)": {
        "details": "See {IERC721-getApproved}."
      },
      "isApprovedForAll(address,address)": {
        "details": "See {IERC721-isApprovedForAll}."
      },
      "name()": {
        "details": "See {IERC721Metadata-name}."
      },
      "ownerOf(uint256)": {
        "details": "See {IERC721-ownerOf}."
      },
      "safeTransferFrom(address,address,uint256)": {
        "details": "See {IERC721-safeTransferFrom}."
      },
      "safeTransferFrom(address,address,uint256,bytes)": {
        "details": "See {IERC721-safeTransferFrom}."
      },
      "setApprovalForAll(address,bool)": {
        "details": "See {IERC721-setApprovalForAll}."
      },
      "supportsInterface(bytes4)": {
        "details": "See {IERC165-supportsInterface}."
      },
      "symbol()": {
        "details": "See {IERC721Metadata-symbol}."
      },
      "tokenURI(uint256)": {
        "details": "See {IERC721Metadata-tokenURI}."
      },
      "transferFrom(address,address,uint256)": {
        "details": "See {IERC721-transferFrom}."
      }
    },
    "version": 1
  },
  "userdoc": {
    "kind": "user",
    "methods": {},
    "version": 1
  }
}